:020000040800F2
:10000000C00F002039020008CD3C0008D13800089C
:10001000C93C0008351C00083949000800000000F0
:10002000000000000000000000000000013F000888
:10003000531C000800000000D13C000811400008DB
:10004000530200085302000853020008530200083C
:10005000530200085302000853020008530200082C
:10006000530200085302000853020008530200081C
:10007000530200085302000853020008530200080C
:1000800053020008530200085302000853020008FC
:1000900053020008530200085302000853020008EC
:1000A00053020008530200085302000853020008DC
:1000B0007D4000088D4000089D4000085302000864
:1000C00053020008530200085302000853020008BC
:1000D00053020008094700085302000853020008B1
:1000E00053020008530200085302000800F002F80F
:1000F00000F092F80AA090E8000C82448344AAF130
:100100000107DA4501D100F087F8AFF2090EBAE82D
:100110000F0013F0010F18BFFB1A43F0010318473B
:10012000DC4A0000FC4A0000103A24BF78C878C1BD
:10013000FAD8520724BF30C830C144BF04680C60ED
:10014000704700000023002400250026103A28BF35
:1001500078C1FBD8520728BF30C148BF0B60704739
:100160006E2900F03883702900F09D81662904F023
:100170009984652904F09684672904F093846129A1
:1001800004F0928403681B0A28BF41F080016929AA
:1001900000F00E81642900F00B81752900F00881C0
:1001A0006F2900F02684782900F06981E92900F0A0
:1001B000C183E42900F0BE83F52900F0BB83EF2959
:1001C00000F02384F82900F068810368DB0928BF68
:1001D00041F08001632900F04283732900F04783D6
:1001E000E32900F0F987F32900F0FE87002070472B
:1001F0001FB501F04BF804000020002104F03CFC86
:10020000401C60600020002104F020FCE06000F051
:1002100065FA1FBD10B510BD01F00AF81146FFF7D1
:10022000E7FF04F0FCFB01F0E7F803B4FFF7F2FF8F
:1002300003BC01F031F90000094880470948004734
:10024000FEE7FEE7FEE7FEE7FEE7FEE7FEE7FEE786
:10025000FEE7FEE704480549054A064B70470000E3
:100260007B400008ED000008C0090020C00F0020FE
:10027000C00B0020C00B00207CB51D4616460C00AC
:10028000009001D02044401E074B7B442A4669461B
:100290000190304600F0B9FA05461CB100206946CD
:1002A00000F0C6FA28467CBDAD0500000FB41CB5B1
:1002B000084B06AA7B4469460090059800F0A5FA11
:1002C00004460020694600F0B3FA20461CBC5DF8E5
:1002D00014FB0000790500000FB47CB50C0009AADE
:1002E000009001D02044401E084B7B446946019099
:1002F000089800F08AFA05461CB10020694600F013
:1003000097FA28467CBC5DF814FB00004D05000000
:1003100070B5044685690068C10601D5302600E045
:100320002026C00707D070BDD4E901213046904790
:10033000206A401C20626D1EF6D570BD70B5044663
:1003400085690078C00707D170BDD4E9012120205C
:100350009047206A401C20626D1EF6D570BD70B5B6
:100360000C460546012A05D02878800600D5EA69A2
:10037000002302E0012305E05B1C934202D2E05C13
:100380000028F9D1A869E618C01AA861286A18449B
:1003900028622846FFF7BCFF04E0D5E9012114F8E4
:1003A000010B9047B442F8D32846FFF7C7FF70BD52
:1003B0002DE9F0410646002410687529314616A53E
:1003C00010D000F09DF9002802DA404213A507E0A2
:1003D00031688A0701D512A502E0490704D511A5A5
:1003E000012401E000F095F900210A2206F124071A
:1003F00009E0B0FBF2FCB0FBF2F302FB1C00303072
:1004000078541846491C0028F3D123462A46304622
:10041000BDE8F04100F086B9000000002D000000AA
:100420002B00000020000000F0B40D4601880905F3
:1004300002D5214C7C4402E01F4C7C440E34002148
:1004400000F1240608E002F00F071209E75D42EA16
:1004500003721B097754491C52EA0307F3D102784F
:100460000023120704D5702D06D009B102231134E0
:100470002246F0BC00F056B901231034F8E770B5FD
:1004800004460D462146106800F043F9024629460D
:100490002046BDE870400023C6E7D21D22F00703C6
:1004A000D3E90023C0E70368126843F02003036028
:1004B0000823C3610023B7E79E4600002DE9F05FE3
:1004C000894604464FF0000ADFF874B1FB44C0F8D7
:1004D00020A02046E1688847002874D0252806D04F
:1004E000D4E901219047206A401C2062F1E70026F0
:1004F0005F462046E16888472028054607DB312D06
:1005000005D2781910F8200C08B10643F1E7B007BE
:1005100001D526F00406C4F81CA00027C4F818A0D2
:100520002A2D09D0284604F073FA38B304EB870863
:10053000303DC8F8185019E059F8041B204604EB68
:1005400087029161E1688847012F054618D1E0696B
:10055000002820DA26F020061DE0D8F8180000EB6D
:10056000800005EB40003038C8F818002046E168EC
:100570008847054604F04CFA0028EED1012F0AD036
:100580002E2D08D12046E16888477F1C0546022FA2
:1005900046F02006C4DBA069002803DA404246F09A
:1005A0000106A061F00701D026F010066C2D0BD0DB
:1005B000682D09D04C2D39D06A2D35D0742D35D009
:1005C0007A2D33D016E038E0E1682F462046884780
:1005D000B842054609D16C2F26D04FF48060E168FF
:1005E000064320468847054604E06C2F1AD04FF496
:1005F000807006430DB3A5F14100192802D82035BB
:1006000046F400664A462946204626604E46FFF7D5
:10061000A7FD80B101280BD0F61D26F0070000F1E0
:10062000080956E74020E4E78020D8E70020D6E715
:1006300006F104094DE7284652E7206ABDE8F09F1D
:100640002E4600004FF000020429C0F0128010F086
:10065000030C00F01B80CCF1040CBCF1020F18BF9E
:1006600000F8012BA8BF20F8022BA1EB0C0100F031
:100670000DB85FEAC17C24BF00F8012B00F8012B04
:1006800048BF00F8012B70474FF0000200B5134639
:1006900094469646203922BFA0E80C50A0E80C50A2
:1006A000B1F12001BFF4F7AF090728BFA0E80C5053
:1006B00048BF0CC05DF804EB890028BF40F8042B4C
:1006C00008BF704748BF20F8022B11F0804F18BFB9
:1006D00000F8012B704770477047704770B5064CA3
:1006E0007C44064D7D4403E0206820448047241D5F
:1006F000AC42F9D170BD00006446000068460000BD
:1007000009684A0501D540B27047C905FCD500B259
:10071000704709684A0501D5C0B27047C905FCD5C4
:1007200080B270472DE9F0470D469946924604463F
:1007300000F124080168880604D5E06921F0100161
:10074000216000E00120A84201DD471B00E00027F6
:10075000A1697A1902EB0900081AA0612078C00685
:1007600002D42046FFF7D4FD002608E0D4E9012199
:100770001AF806009047206A401C761C20624E45FD
:10078000F4DB2078C0060AD52046FFF7C1FD06E05D
:10079000D4E9012130209047206A401C2062381E95
:1007A000A7F10107F4DC07E0D4E9012118F80500FE
:1007B0009047206A401C2062281EA5F10105F3DC49
:1007C0002046FFF7BBFD2078000602D50220BDE8D9
:1007D000F0870120FBE711680268006A530501D524
:1007E00008700AE0D30501D5088006E0130603D59A
:1007F000C217C1E9000200E0086001207047000054
:1008000001694A1C02610878704700B58FB0CDE9D4
:1008100001310021059105497944CDE903101146C4
:100820006846FFF74BFE0FB000BD0000E5FFFFFF7D
:100830000A6802F8010B0A607047D1E900239A4266
:1008400002D2531C0B601070704710B5436913B18E
:10085000AFF3008001E0FFF782FD012010BD1278A8
:1008600000F124010A7000224A700122EDE71168AC
:100870004FF0FF32E9E700002DE9FF5F15468A4699
:100880000446DFF8AC80F8440027D8E900103E4663
:10089000CDE9001010E03AF816106A4602A800F000
:1008A000A7FC411C07D02178890603D5E2693918D5
:1008B00091420DD80744761C2078800602D5E06965
:1008C000B84205DDAE42E6DB3AF816000028E2D178
:1008D000A069C01BA0612046FFF71AFDD8E90010EF
:1008E000CDE90010002017E03AF818106A4602A877
:1008F00000F07EFCB0F1FF3F81460BD000250DF1EA
:10090000080B05E0D4E901211BF8050090476D1C98
:100910004D45F7D308F10100B0428046E4DB206A80
:10092000384420622046FFF709FDBDE8FF9F000024
:10093000864200002DE9F0418046D21D22F00702D8
:100940000025D2E90002F52915A614D0011E72F186
:10095000000106DA0023D0EB030063EB020211A6CC
:1009600008E0D8F800108B0701D50FA602E0490770
:1009700001D50EA601251146002408F1240704E044
:1009800000F04EF830323A55641C50EA0102F7D1BB
:100990002B46324621464046BDE8F041FFF7C2BE35
:1009A000000000002D0000002B00000020000000CF
:1009B00030B4002100F1240408E002F00705D20859
:1009C000303542EA4372DB086554491C52EA03059C
:1009D000F3D10468002310A2250707D5A40600D48C
:1009E00021B1C46901230DA2641EC46130BCFFF7AC
:1009F00099BE10B5044621461068FFF78AFE0246EC
:100A00002046BDE810400023D2E7D21D22F00701A6
:100A1000D1E90023CCE70000000000003000000016
:100A200030B5B0F10A024FEA900E71F100034EEAC0
:100A3000817EB0EB0E0061EB91014FEA101E4EEA91
:100A4000017E10EB0E0041EB11114FEA102E4EEA21
:100A5000016E10EB0E0041EB11214FEA104E4EEAF1
:100A6000014E10EB0E0041EB1141401841F1000125
:100A70004FEAD00040EA41704FEAD10110EB800507
:100A80004FEA810444EA907444EB01046D1944EB8D
:100A90000404521BA3414FF0000348BF0A3200D5A3
:100AA00030BD401C41F1000130BD70472DE9FF4FC2
:100AB0000C461E464FF0FF378BB0D2E90001DDF83F
:100AC00060800A908A46C1F30A5505B93D46002167
:100AD00008464FF00000BAF1000F00F4400005DABC
:100AE00000EB80004FF4400101EA50004FEA9059BA
:100AF000B9F1010F00DDB9460A9850EA4A000ED05C
:100B000044F61050A5F2FF3545432F14B8F1000FFD
:100B10001ED07542291E1EDDC9F100021CE0B8F18D
:100B2000010F4FF0000001D0302103E0F24305E057
:100B30002154401CB042FBDB3046002200212154EE
:100B40000B99C1F80880C1E900200FB0BDE8F08F13
:100B5000BD1B6D1CDEE74A4600DA694206A800F0BC
:100B6000D9FB06AB93E8070003AB83E807005046C8
:100B70000A9900F097FC8DE80700A0F500501F3897
:100B800000900398002D0ADD42F21F014A460844F6
:100B9000002303A90390684600F000FF09E0A0F5D8
:100BA00000504A461F38002303A90390684600F00E
:100BB0000AFF8DE807000004000C03D04FF0FF305F
:100BC000410800E01046B8F1000F03D00022009267
:100BD00015461EE0751E05D4FFF722FF3032625520
:100BE0006D1EF9D5B3460122084302D000227F1CB6
:100BF00004E02078302801D100227F1E002A0997C6
:100C000084D01DE0112D07DAFFF70AFF303262555C
:100C10006D1C50EA0102F5D1084302D00098C8B11A
:100C20000EE00021681E05E0235C625C63542254E0
:100C3000401E491C8142F7DBAB46A81B401E0990B1
:100C4000002004F80B000B98099AC0F80880C0E94E
:100C5000002B7AE711264FF0000857E72DE9F04FF7
:100C600088460446D21D22F0070191B0D1E9000167
:100C7000CDE90A0103F09CFE02460B98C00F01D09B
:100C80002D2007E02068810701D52B2002E02021DC
:100C900001EAC000032A099001D0072A05DB0346B8
:100CA0004146204600F0F6FA0BE12078800601D597
:100CB000E06900E00620B8F1650F814606D0B8F182
:100CC000660F18D0B8F1670F70D131E00020B9F18C
:100CD000110F009001DB112301E009F101030AAAC1
:100CE00001A90CA8FFF7E2FEDDE90C70002609F16E
:100CF0000105834647E001204B4600904FF0004736
:100D00000AAA01A90CA8FFF7D1FEDDE90DB00C99E4
:100D10005D46002610B909F101000D18B9EB050078
:100D200003D4C0F1FF3609F10105A5EB09002BE062
:100D3000B9F1010F01DA4FF001090020B9F1110FEB
:100D40000090484601DD112300E003460AAA01A9EC
:100D50000CA8FFF7ABFEDDE90C704D46002683467C
:100D6000207800070AD4AB4500DA5D4601A8012DC2
:100D700004DD411911F8011C302907D04F4502DA72
:100D800017F1040F04DA012082460FE06D1EEEE732
:100D9000002F02DCED1B3E4403E0781CA84200DD7E
:100DA0007D1CB81B00F1010A4FF0004720780007B6
:100DB00003D4AA4501DB4FF0FF3A0021B7F1004F01
:100DC0000DF143088DF8431024D002202B23002F6F
:100DD00001DA7F422D230A21021EA0F1010000DC6E
:100DE0005FB197FBF1FC97FBF1F201FB1C7C17460E
:100DF0000CF1300C08F801CDEEE7A8F1010003700A
:100E00002188090501D5452100E06521A0F10108EF
:100E100000F8011C09980FA9A1EB0807FF1D00B1FC
:100E20000120411901EBEA70A1693844081A401EFB
:100E3000A0612078C00602D42046FFF769FA09981D
:100E400028B1D4E901219047206A401C2062207813
:100E5000C00622D52046FFF75BFA1EE0002E04DB19
:100E6000B34502DD01A8805D00E03020D4E9012116
:100E70009047206A401C2062761CAAF101005FEABC
:100E8000000A0AD100F002FAC0680168405CD4E9A7
:100E900001219047206A401C2062281EA5F101050F
:100EA000DCDC07E0D4E9012118F8010B9047206A47
:100EB000401C2062381EA7F10107F3DC2046FFF733
:100EC0003DFA032011B041E62DE9F04F04460D46EE
:100ED000D21D22F0070089B0D0E900974846394674
:100EE00003F066FD0246F80F01D02D2307E02068CD
:100EF000810701D52B2302E0202101EAC0038DF8F0
:100F000020300BB1012000E00020032A824601D0EE
:100F1000072A04DB2946204600F0BCF93FE120788F
:100F2000800601D40D2500E0E569C7F30A560D2DB2
:100F300049DA00214FEA175B08464FF00000002F06
:100F400000F4400007DA00EB80004FF4400100EBB2
:100F5000D07001EA60008115012901DD4FF0FF31F9
:100F600000224FEA850CBCF1180F06D31346ACF1F2
:100F700018004FF08052C24003E04FF4801323FA70
:100F80000CF30CF10C0CBCF1200F04D3ACF1200CD1
:100F900009FA0CF001E007FA0CF000294FF00048C4
:100FA00001DD18B90FE00ED140450CD319EB020951
:100FB0005F4121B9404502D19F4329EA0209BBEBB9
:100FC000175F00D0761C2088000502D57B48784446
:100FD00002E07A487844193808AA302302F80A3027
:100FE000037C0AF10101002E0AF1020A53546A46F9
:100FF00002DC4FF0300101E04FF031014FF0010809
:101000008DF8001002D0A6F2FF3603E059EA47013E
:1010100000D06B4E002D02DC2178090704D54FF07B
:1010200002082E218DF80110C44600210BE0C7F301
:1010300003433F01C35C491C6D1E02F808300529BB
:1010400008F1010801DA002DF1DC00210CE000EBD1
:101050001973491C1B786D1E082902F808304FEAE5
:10106000091908F1010801DA002DF0DC21688B066E
:1010700002D516E0A8F10108E04505DD02EB080302
:1010800013F8013C302BF5D0B8F1000F09DD02EB6D
:10109000080313F8013C2E2B03D1090701D4A8F152
:1010A0000108002D05DD3E2102F808106D1E08F133
:1010B0000108407C002E02F8080008F1010804DA5B
:1010C0002D20764202F8080002E02B2002F80800EA
:1010D0000A214FF47A70864208F101080BDB96FB77
:1010E000F0F3303302F8083096FBF0F308F1010812
:1010F00000FB136601E0642E0CDB642096FBF0F32A
:10110000303302F8083096FBF0F308F1010800FBD9
:10111000136601E00A2E06DB96FBF1F0303002F890
:10112000080008F1010896FBF1F001FB1060303077
:1011300002F80800A16908F1010808EB050202EBBA
:101140000A00081AA0612078C00602D42046FFF7E2
:10115000DFF8216A08AE01EB0A00206204E0D4E95E
:10116000012116F8010B9047BAF1010AF7D2207855
:10117000C00602D52046FFF7CBF86E4609E016F808
:10118000010B3E280FD0D4E901219047206A401C72
:101190002062B8F10108F2D22046FFF7CFF809B07B
:1011A0000320BDE8F08F206A2844206203E0D4E9E0
:1011B0000121302090476D1EEBD3F8E7593B00002A
:1011C00002FCFFFF10B5436913B1AFF3008001E0EB
:1011D000FFF752FB012010BD128800F12401828428
:1011E0000022C2840122EDE711684FF0FF32E9E7E7
:1011F00070B516460C46054600F040F8036893F8B3
:101200000101012806D0FF2C0FD8185D68B101201C
:101210002C7070BDD3F807013246214603F2071344
:1012200003442846BDE8704018474FF0FF3070BDBA
:10123000754600F0EBF8AE4605006946534620F0CF
:101240000700854618B020B5FFF704F8BDE8204038
:101250004FF000064FF000074FF000084FF0000B72
:1012600021F00701AC46ACE8C009ACE8C009ACE825
:10127000C009ACE8C0098D467047000010B500F009
:1012800005F8001D10BD00BFF13700000048704791
:101290007C0900202DE9F0411F4604460326016821
:1012A000072A01F4006004DB08B116A505E016A5C5
:1012B00003E008B115A500E015A521F0100020609D
:1012C000A069C01EA0610FB1401EA0612046FFF7BB
:1012D0001FF84FB1D4E9012138469047206A401CDD
:1012E0002062C01C206206E0206AFAE7D4E90121EE
:1012F00015F8010B9047761EF8D22046FFF71EF82E
:10130000BDE8F0814E414E006E616E00494E4600D0
:10131000696E66002DE9F047814616468AB0354869
:1013200078440DC88DE80D0032487844801C03AC29
:101330000DC884E80D0041F69B300844372190FB2E
:10134000F1F290FBF1F5A5F1800501FB12041B3CC5
:1013500002D56442012000E00020DFF898A080461A
:101360000027FA44AAF1BE0A0EE0E0070AD032468E
:10137000684607EB470101230AEB810100F023FBDC
:101380008DE8070064107F1C002CEED1194F7F44BC
:10139000AE3F19E0E80715D007EB04100DF1180A6D
:1013A00090E80E008AE80E00C068F04201D198195A
:1013B00008903246012306A903A800F004FB03AB02
:1013C00083E807006D10641C002DE3D14FF001038A
:1013D00032466946B8F1000F03A802D000F0DEFAE9
:1013E00001E000F0F0FAC9E90001C9F808200AB0EC
:1013F000BDE8F0879838000010B50446AFF30080D0
:101400002046BDE81040FEF710BF000000487047BE
:101410005C0900204FF0013C50F8042B51F8043BCC
:101420009A4221D1A2EB0C03934313EACC1317D1B8
:1014300050F8042B51F8043B9A4215D1A2EB0C034F
:10144000934313EACC130BD150F8042B51F8043B0F
:101450009A4209D1A2EB0C03934313EACC13DBD0DD
:101460004FF00000704700BFD01A01BAB1FA81F105
:1014700001F0180122FA01F0CB40C1F12001DBB2EA
:10148000C0B2C01A2CFA01F3D11A914311EAC31168
:10149000E6D170477047000001491820ABBEFEE757
:1014A000260002005FEA400C08BF91F0000F4FEAEF
:1014B0008C234FEAC12243EA51514FEA1C5018BF16
:1014C00000F5F0404FEA300018BF41F000415FEAFC
:1014D0006C5C00F02980BCF1FF3F08BF40F0804009
:1014E0007047130C06BF12044FF0100C4FF0000CA5
:1014F000130E04BF12020CF1080C130F04BF1201EB
:101500000CF1040C930F04BF92000CF1020CD30FEA
:1015100004BF52000CF1010C11464FF00002A0F183
:101520001F00A0EB0C00704711F0004F08BF704780
:1015300031F000413FF4D5AF0B0C06BF09044FF06A
:10154000100C4FF0000C0B0E04BF09020CF1080C3C
:101550000B0F04BF09010CF1040C8B0F04BF8900B1
:101560000CF1020CCB0F04BF49000CF1010CCCF1C3
:101570002003A0EB0C0022FA03F302FA0CF241EA7A
:10158000030100F10100704720F07F4C80EA030066
:1015900023F07F47ACEB070303F57C5300F00040DA
:1015A00003F1FF032DE980494FEA154B09B44FEAD7
:1015B000144325EA0B4E24EA03480FF2042606EBF7
:1015C000132749083E785FEA320203FB0667C7F536
:1015D000000707FB06F64FEA54374FEAD64606F1F6
:1015E000020607FB066CCCF1005C4FEA1C472CEAB4
:1015F000074C07FB06F40CFB06F504EB15464FEA17
:10160000961634BF00204FF000404FEAD13706FB5A
:1016100007FC4FEA1C4C0CFB0BF7D21B03FB0CF72F
:1016200061EB07010CFB0EF7B0EB074072EB1742C2
:101630000CFB08F734BFA2EB0742B2EB074261EBA9
:1016400017414FEA0C444FEA910706FB07FC4FEAAB
:101650001C4C0CFB0BF7B0EBC74072EB573203FB93
:101660000CF734BFA2EBC742B2EBC74261EB573174
:101670000CFB0EF7B0EBC70072EB57720CFB08F7D0
:1016800034BFA2EBC702B2EBC70261EB5771039FF5
:101690004FEA816141EA921104EBCC044FEAD13761
:1016A0004FEA826206FB07FC42EA90124FEA806032
:1016B0004FEA1C4C0CFB0BF7D21B03FB0CF761EB46
:1016C00007010CFB0EF7B0EB074072EB17420CFB67
:1016D00008F734BFA2EB0742B2EB074261EB1741B8
:1016E0004FEA8C554FEA910704EB9C2406FB07FC5C
:1016F0004FEA1C4C0CFB0BF7B0EBC74072EB5732B8
:1017000003FB0CF734BFA2EBC742B2EBC74261EB5D
:1017100057310CFB0EF7B0EBC70072EB57720CFBA6
:1017200008F734BFA2EBC702B2EBC70261EB5771F7
:1017300015EB4C254FEA816141EA92114FEA826232
:101740004FEAD13742EA901206FB07FC44F100044D
:101750004FEA80604FEA1C4C0CFB0BF7D21B03FBDB
:101760000CF761EB07010CFB0EF7B0EB074072EBD7
:1017700017420CFB08F734BFA2EB0742B2EB07425B
:1017800061EB174115EB1C154FEA813141EA92419B
:101790004FEA823242EA90424FEA80304FEA0C76BA
:1017A00044F1000448EA03434EEA0B484FF0000EB0
:1017B000B2EB080C71EB030724BF624639464EEBCF
:1017C0000E0E4FF0000B0018524149414BEB0B0B32
:1017D000B2EB080C71EB03077BF1000B24BF6246F0
:1017E00039464EEB0E0E4FF0000B001852414941A6
:1017F0004BEB0B0BB2EB080C71EB03077BF1000B0F
:1018000024BF624639464EEB0E0E51EA020718BF5E
:1018100046F0010616EB0E7655F1000254F1000178
:1018200003D5BDE88901BDE80088BDE88901BDE8B0
:101830000048B619524141EB0101A3F10103704781
:1018400080807F7E7D7C7B7A7978777676757473FD
:10185000727171706F6E6E6D6C6C6B6A6A696868BC
:10186000676666656464636362616160605F5F5E52
:101870005E5D5D5C5C5B5B5A5A59595858575756C8
:10188000565555555454535352525251515050502D
:101890004F4F4F4E4E4D4D4D4C4C4C4B4B4B4A4A7F
:1018A0004A494949484848474747474646464545C3
:1018B00045444444444343434342424242414141FC
:1018C000002B9C4630D477002BD01CB54FEA37074D
:1018D00003B44FF010004FF01001BAF1000F06D022
:1018E000BCF1000FDCBF40F0080040F008014FF0F1
:1018F00000000FBCBDE810400BF1010BBBF1010F64
:1019000008BF5FEA170722BF12F1010211F10101BE
:101910004FF0004143F1000300F0004043EA0000B3
:101920007047F9D35708D0E746EA064613F1400F4F
:101930004FEA16461FDD13F1200FDFBF16430A469C
:10194000002120335B42BED0C3F1200746EA0646A1
:1019500002FA07F74FEA164646EA0706C3F12007E0
:1019600022FA03F201FA07F721FA03F14FF000031C
:1019700042EA0702A7E746EA020646EA06464FEAB7
:10198000164646EA0106BCBF46EA0646360C4FF04C
:1019900000034FF000024FF0000194E72DE9804C66
:1019A0009A46934670B491E8380007C831EA400C73
:1019B00048BF34EA430C03D5FFF7E6FDFFF780FF8D
:1019C000F0BCBDE8008C2DE9804C9A46934670B47B
:1019D00091E8380007C810F0804F08BF13F0804F1F
:1019E00003D100F005F8FFF76BFFF0BCBDE8008CF9
:1019F00020F07F4780EA030023F07F4C07EB0C03C5
:101A0000A3F57C5300F00040A3F1FE0392F0000F19
:101A100000F0B38095F0000F00F077802DE90149C8
:101A20004FEA11404FEA144621EA004800FB06FC49
:101A300024EA064708FB06F607FB08F800FB07F751
:101A400018EB06484CEB164C4FEA124B18EB0748C4
:101A50004FEA15464CEB174022EA0B4E0BFB06FCF7
:101A600025EA06470EFB06F607FB0EFE0BFB07F703
:101A70001EEB064E4CEB164C4FF000061EEB074ECD
:101A80004CEB174B18EB0B0840F1000018EB0E0B5A
:101A900058EB000840F100008F1A4FF000013CBFE6
:101AA000C943661B14BFB5EB040C00213CBFC943FE
:101AB000F61B4FEA17444EEA8E0E27EA04454FEA1A
:101AC0001C4704FB07622CEA074C05FB07F70CFBDD
:101AD00005F604FB0CFC16EB074642EB174216EB2F
:101AE0000C4642EB1C421BEB060658EB020241413E
:101AF00046EA9E0601D5BDE80189B619524141EB7F
:101B00000101A3F10103BDE801894FEA14454FEA41
:101B1000114724EA054621EA074C05FB07F406FBBA
:101B200007F70CFB06F105FB0CFC11EB074144EB3E
:101B300017444FEA124711EB0C4144EB1C4422EAD4
:101B4000074C05FB07F206FB07F70CFB06F605FB47
:101B50000CFC16EB074642EB174216EB0C4642EB29
:101B60001C456A1854F1000148BF7047B61952412C
:101B700041EB0101A3F10103704795F0000F37D04D
:101B80004FEA11424FEA144721EA024624EA074C81
:101B900002FB07F106FB07F70CFB06F402FB0CFC4B
:101BA00014EB074441EB17414FEA154714EB0C4483
:101BB00041EB1C4125EA074C02FB07F506FB07F742
:101BC0000CFB06F602FB0CFC16EB074645EB174533
:101BD00016EB0C4645EB1C42121951F1000148BFAF
:101BE0007047B619524141EB0101A3F1010370475F
:101BF0004FEA14454FEA114724EA054621EA074C0B
:101C000005FB07F106FB07F70CFB06F24FF0000699
:101C100005FB0CFC12EB074241EB174112EB0C42A7
:101C200051EB1C4148BF7047921841EB0101A3F1F1
:101C30000103704700BFFEE710B5044600F040FA0C
:101C40002168401A6168884201D3012010BD00203C
:101C5000FCE7704772B600BFFEE710B5044600F01F
:101C60002FFA206010BD0146002291F821000228C1
:101C700008D00420886300BF002081F8200000BF46
:101C8000012070470868006820F00E000B6818609B
:101C90000868006820F001000B68186091F8403077
:101CA00001209840CB6B5860012081F8210000BFD3
:101CB000002081F8200000BF1046E2E770B504461E
:101CC000002594F82100022803D00420A0630125F8
:101CD00048E02068006820F00E0021680860206855
:101CE000006820F00100216808601F4920688842D0
:101CF00001D1012026E01C4914312068884201D11D
:101D000010201FE0184928312068884201D1801531
:101D100018E015493C312068884201D1801411E057
:101D2000114950312068884202D14FF4803009E0D7
:101D30000D4964312068884202D14FF4801001E0DF
:101D40004FF08070084908394860012084F821006C
:101D500000BF002084F8200000BF606B10B1204657
:101D6000616B8847284670BD0800024070B5044684
:101D700000F0A6F906462546681C10B10448007814
:101D8000054400BF00F09CF9801BA842FAD370BD47
:101D9000080000202DE9F8470346002294466EE132
:101DA0004FF0010808FA02F4D1F8008008EA0400B4
:101DB000A0427DD1DFF8DCA2D1F80480A8EB0A09AB
:101DC000D0453AD014DCB8F1030F50D009DCB8F19B
:101DD000000F31D0B8F1010F1CD0B8F1020F49D17A
:101DE00020E0B8F1110F18D0B8F1120F42D11EE067
:101DF000B9F5881F25D006DCB9F5803F20D0B9F5AC
:101E0000801F37D11AE0B9F5001F18D0B9F5041FAB
:101E100030D117E0D1F80CC02DE0D1F80C8008F1DA
:101E2000040C28E0D1F80C8008F1080C23E0D1F86C
:101E30000C8008F10C0C1EE000BF00BF00BF00BF0B
:101E400000BF00BFD1F80880B8F1000F02D14FF0F9
:101E5000040C0BE0D1F80880B8F1010F03D14FF06A
:101E6000080C1C6102E04FF0080C5C6103E04FF0CD
:101E7000000C00E000BF00BFFF2801D8984601E039
:101E800003F104084646FF2802D84FEA820803E01F
:101E9000A2F108084FEA88084746D6F800804FF0BC
:101EA0000F0909FA07F928EA09080CFA07F900E00E
:101EB00088E048EA0908C6F80080D1F8048008F0F4
:101EC0008058B8F1805F7DD100BFDFF8CC81D8F8B1
:101ED000188048F00108DFF8C091C9F81880C8469A
:101EE000D8F8188008F00108CDF8008000BF00BFC6
:101EF0004FEAB9384FEA920958F829504FEA8278E8
:101F00004FEA18794FF00F0808FA09F825EA080592
:101F1000DFF88881434502D14FF0000816E0DFF872
:101F20008081434502D14FF001080FE0DFF8748152
:101F3000434502D14FF0020808E0DFF86C814345C9
:101F400002D14FF0030801E04FF004084FEA827914
:101F50004FEA197908FA09F848EA0505DFF84C81D3
:101F60004FEA920948F82950D1F8048008F4801803
:101F7000B8F5801F0AD1DFF83881D8F8008048EA28
:101F80000008DFF82C91C9F8008009E0DFF8208113
:101F9000D8F8008028EA0008DFF81491C9F800801A
:101FA000D1F8048008F40018B8F5001F10D1DFF84C
:101FB000008108F10408D8F8008048EA0008DFF83A
:101FC000F09000E05AE009F10409C9F800800DE042
:101FD000DFF8DC8008F10408D8F8008028EA00085F
:101FE000DFF8CC9009F10409C9F80080D1F8048029
:101FF00008F40038B8F5003F0ED1DFF8B480A8F13E
:102000000408D8F8008048EA0008DFF8A490A9F195
:102010000409C9F800800DE0DFF89480A8F10408F5
:10202000D8F8008028EA0008DFF88490A9F10409B4
:10203000C9F80080D1F8048008F48038B8F5803FF2
:102040000ED1DFF86C80A8F10808D8F8008048EAC3
:102050000008DFF85C90A9F10809C9F800800DE0DC
:10206000DFF84C80A8F10808D8F8008028EA0008BA
:10207000DFF83C90A9F10809C9F80080521CD1F89A
:10208000008028FA02F8B8F1000F7FF489AEBDE8AD
:10209000F887000000001110001002400008014005
:1020A000000C0140001001400014014008000140F4
:1020B000080401400AB1016101E00B0403617047AB
:1020C00001480068704700000000002003480068D5
:1020D000034909780844014908607047000000205E
:1020E0000800002010B50848006840F010000649BC
:1020F0000860032000F0A8F80F2000F007F800F0B7
:102100002BF8002010BD00000020024070B50446EE
:102110000E4800784FF47A71B1FBF0F00C49096871
:10212000B1FBF0F5284600F0C1FD08B1012070BDFB
:10213000102C07D200222146501E00F047F8054817
:10214000046001E00120F2E70020F0E70800002031
:102150000C0000200400002008B500BF1148806971
:1021600040F001000F4988610846806900F00100D5
:10217000009000BF00BF00BF0846C06940F080501B
:10218000C8610846C06900F08050009000BF00BFE1
:1021900000BF0549486820F0E06040F000704860EA
:1021A00000BF08BD00100240000001400146084683
:1021B000002809DB00F01F0301229A4043099B001D
:1021C00003F1E023C3F8002100BF70472DE9F05F61
:1021D00080460D461646002702F0FEFB07463946AC
:1021E0002A46334601F00700C0F1070ABAF1040F8E
:1021F00002D94FF0040A01E0C0F1070AD14600F10C
:10220000040ABAF1070F02D24FF0000A01E0A0F170
:10221000030AD4464FF0010A0AFA09FAAAF1010AA0
:102220000AEA020A0AFA0CFA4FF0010B0BFA0CFB4D
:10223000ABF1010B0BEA030B4AEA0B0421464046C3
:1022400002F0D2FBBDE8F09F00BF00F00702064B92
:1022500019684FF6FF031940044B0B4343EA022170
:10226000014B196000BF70470CED00E00000FA055B
:1022700070B504460D460CB9012070BD5A4800687F
:1022800000F00700A8420ED25748006820F007006F
:102290002843554908600846006800F00700A84236
:1022A00001D00120E9E7207800F0020002281DD1CA
:1022B000207800F00400042805D14C48406840F420
:1022C000E0604A494860207800F00800082805D1FD
:1022D0004648406840F4605044494860434840687C
:1022E00020F0F000A168084340494860207800F0E1
:1022F000010078B36068012806D13C48006800F40A
:10230000003090B90120B8E76068022806D137484C
:10231000006800F0007040B90120AEE73348006863
:1023200000F0020008B90120A7E73048406820F01B
:102330000300616808432D494860FFF7C1FE064667
:1023400009E0FFF7BDFE801B41F28831884202D9C7
:10235000032092E707E02548406800F00C00616820
:10236000B0EB810FEDD12048006800F00700A842D3
:102370000ED91D48006820F0070028431A4908605C
:102380000846006800F00700A84201D0012074E769
:10239000207800F00400042807D11448406820F495
:1023A000E060E168084311494860207800F00800C7
:1023B000082808D10D48406820F46050216940EA9F
:1023C000C1000A49486000F03FF808494968C1F374
:1023D0000311074A515CC840064908600648006876
:1023E000FFF794FE002048E7002002400010024062
:1023F000BE4A00080C0000200400002001480068CC
:10240000704700000C00002000B5FFF7F7FF0449FB
:102410004968C1F30221034A515CC84000BD000075
:1024200000100240CE4A000800B5FFF7E7FF04495C
:102430004968C1F3C221034A515CC84000BD000095
:1024400000100240CE4A000870B50021002200248E
:1024500000230020134D696801F00C05F5B1042D2F
:1024600002D0082D19D101E00F4819E00F4DC1F33A
:102470008346AB5D01F4803555B10A4D6D68C5F3F7
:1024800040450B4E725D084D5D43B5FBF2F402E032
:10249000084D03FB05F4204602E000BF024800BFE0
:1024A00000BF70BD0010024000127A00AC4A000864
:1024B000BC4A000800093D00F8B504460CB90120EB
:1024C000F8BD207800F00100002878D0F848406876
:1024D00000F00C0004280CD0F548406800F00C0017
:1024E000082811D1F248406800F48030B0F5803FF0
:1024F0000AD1EF48006800F4003000285FD060681F
:1025000000285CD10120DBE700BF6068B0F5803FA8
:1025100006D1E748006840F48030E549086028E0CB
:10252000606858B9E248006820F48030E0490860EB
:102530000846006820F4802008601AE06068B0F562
:10254000A02F0BD1DA48006840F48020D8490860F9
:102550000846006840F4803008600AE0D44800680B
:1025600020F48030D24908600846006820F48020BA
:10257000086000BF606888B1FFF7A2FD054606E06D
:10258000FFF79EFD401B642801D9032098E7C84847
:10259000006800F400300028F2D010E0FFF790FD52
:1025A000054606E0FFF78CFD401B642801D9032097
:1025B00086E7BF48006800F400300028F2D1207898
:1025C00000F00200022857D1B948406800F00C0022
:1025D00050B1B748406800F00C00082818D1B44842
:1025E000406800F4803098B9B148006800F00200FB
:1025F00020B12069012801D0012061E7AC480068C2
:1026000020F0F800616940EAC100A949086033E0A0
:102610002069E8B10120A7490860FFF751FD054690
:1026200006E0FFF74DFD401B022801D9032047E7D4
:102630009F48006800F002000028F2D09C48006823
:1026400020F0F800616940EAC1009949086013E090
:10265000002098490860FFF733FD054606E0FFF7C4
:102660002FFD401B022801D9032029E7904800686C
:1026700000F002000028F2D1207800F008000828BD
:102680002DD1A069B8B101208B490860FFF718FD72
:10269000054606E0FFF714FD401B022801D9032080
:1026A0000EE78348406A00F002000028F2D00120C3
:1026B00001F010FB13E000207F490860FFF700FDE8
:1026C000054606E0FFF7FCFC401B022801D9032069
:1026D000F6E67748406A00F002000028F2D1207840
:1026E00000F00400042873D100277148C06900F08D
:1026F000805070B900BF6E48C06940F080506C498E
:10270000C8610846C06900F08050009000BF00BF5B
:1027100001276A48006800F48070B0B96748006813
:1027200040F4807065490860FFF7CAFC054606E082
:10273000FFF7C6FC401B642801D90320C0E65F48B0
:10274000006800F480700028F2D000BFE068012823
:1027500006D15748006A40F001005549086227E059
:10276000E06858B95248006A20F0010050490862F8
:102770000846006A20F00400086219E0E0680528B5
:102780000BD14B48006A40F00400494908620846F2
:10279000006A40F0010008620AE04548006A20F043
:1027A0000100434908620846006A20F004000862FC
:1027B00000BFE068A0B1FFF783FC054609E0FFF722
:1027C0007FFC401B41F28831884202D9032077E622
:1027D00022E03748006A00F002000028EFD012E043
:1027E000FFF76EFC054608E0FFF76AFC401B41F26C
:1027F0008831884201D9032062E62D48006A00F042
:1028000002000028F0D1012F05D12948C06920F02D
:1028100080502749C86100BFE069C8B324484068B8
:1028200000F00C00082860D0E069022848D10020A0
:1028300020490866FFF744FC054606E0FFF740FC28
:10284000401B022801D903203AE61948006800F02D
:1028500000700028F2D1206AB0F5803F07D11448FB
:10286000406820F40030A168084311494860D4E969
:10287000080108430E49496821F4741108430C49C2
:10288000486001200B490866FFF71AFC054607E07F
:102890003DE0FFF715FC401B022801D903200FE69D
:1028A0000348006800F000700028F2D02FE000001C
:1028B000001002400000424280044242007000408A
:1028C000002014490866FFF7FBFB054606E0FFF70A
:1028D000F7FB401B022801D90320F1E50E480068F0
:1028E00000F000700028F2D111E0E069012800D169
:1028F000E6E50948466806F48031206A814204D141
:1029000006F47011606A814201D00120D8E50020F0
:10291000D6E50000000042420010024010B5044617
:102920000CB9012010BD606A38B96068B0F5827FCB
:1029300000D105E00021E16102E000212161616137
:102940000021A16294F8510028B9002084F85000B9
:10295000204600F043F8022084F851002068006807
:1029600020F0400021680860A08800F4827021896E
:1029700001F404410843A18901F400610843217C6A
:1029800001F002010843217D01F001010843218B80
:1029900001F400710843217F01F038010843202130
:1029A000095D01F080010843218D01F400510843C5
:1029B000216808600421A06901EA1040216848608C
:1029C0002068C06920F400602168C861002060654B
:1029D000012084F851000020A4E7000010B586B063
:1029E0000446002002900390049005901A49206844
:1029F00088422FD100BF1948C06940F48040174970
:102A0000C8610846C06900F48040019000BF00BF63
:102A100000BF0846806940F0080088610846806968
:102A200000F00800019000BF00BF4FF4204002906A
:102A3000022003900320059002A90948FFF7AAF994
:102A40004FF48040029000200390049002A90448B3
:102A5000FFF7A0F906B010BD00380040001002409A
:102A6000000C01402DE9FE4F04460F4690461D46DE
:102A70000C9E01200190FFF723FB814694F851B092
:102A800060680290AA46BBF1010F0BD00298B0F526
:102A9000827F04D1A06810B9BBF1040F02D00220DC
:102AA000BDE8FE8F1FB1B8F1000F00D00DB90120B5
:102AB000F6E700BF94F85000012801D10220EFE7AB
:102AC000012084F8500000BF94F85100042802D07F
:102AD000052084F8510000206065C4F83880E5873F
:102AE000A5872763E586A586206460642068006862
:102AF00000F04000402805D02068006840F0400009
:102B000021680860E068B0F5006F52D1606810B1CC
:102B1000BAF1010F09D1206B00882168C860206BD1
:102B2000801C2063E08E401EE0863BE020688068C9
:102B300000F00200022810D1E08E70B10198012847
:102B40000BD1206B00882168C860206B801C20633B
:102B5000E08E401EE086002001902068806800F032
:102B6000010068B1E08F58B12068C068A16B08808F
:102B7000A06B801CA063E08F401EE08701200190C5
:102B8000FFF79EFAA0EB0900B0420BD3701C48B1CE
:102B9000012084F8510000BF002084F8500000BFDD
:102BA00003207DE7E08E0028C0D1E08F0028BDD152
:102BB00052E0606810B1BAF1010F09D1206B0078C2
:102BC00021680873206B401C2063E08E401EE08665
:102BD0003CE02068806800F00200022810D1E08EFE
:102BE00070B1019801280BD1206B0078216808731F
:102BF000206B401C2063E08E401EE0860020019088
:102C00002068806800F0010068B1E08F58B120684A
:102C1000C068A16B0870A06B401CA063E08F401ED1
:102C2000E08701200190FFF74BFAA0EB0900B042CA
:102C300001D3701C00B94EB9012084F8510000BFC7
:102C4000002084F8500000BF032029E7E08E002810
:102C5000BFD1E08F0028BCD14A463146204601F062
:102C60006BF840B12020606500BF002084F8500060
:102C700000BF012014E7A06850B900BF00200090F9
:102C80002068C068009020688068009000BF00BF86
:102C9000012084F8510000BF002084F8500000BFDC
:102CA000606D08B10120FBE60020F9E670B504462E
:102CB0002546681EB0F1807F01D301200FE0681E19
:102CC0004FF0E02148610F214FF0FF3001F08CFE02
:102CD00000204FF0E021886107200861002070BDCE
:102CE0007047704730B502460B4600BF92F83C0073
:102CF000012801D1022030BD012082F83C0000BF34
:102D0000022082F83D00106844681068816824F051
:102D100070041868044310684460104D1068A8429D
:102D20000BD01068B0F1804F07D00D4D1068A8424D
:102D300003D00C4D1068A84205D121F080015868DD
:102D4000014310688160012082F83D0000BF00202F
:102D500082F83C0000BF00BFCDE70000002C01401E
:102D6000000400400008004010B504460CB90120E2
:102D700010BD94F83D0028B9002084F83C0020469E
:102D800000F026F8022084F83D00211D206801F0A3
:102D90008DF9012084F8460000BF84F83E0001212F
:102DA0003F200155402001554120015500BF00BF83
:102DB000012084F84200432001554420015545205C
:102DC000015500BF012084F83D000020D0E700003D
:102DD00038B504462068B0F1804F16D100BF1848BE
:102DE000C06940F001001649C8610846C06900F09A
:102DF0000100009000BF00BF002211461C20FFF719
:102E0000E5F91C20FFF7D2F919E00E492068884245
:102E100015D100BF0A48C06940F004000849C861E4
:102E20000846C06900F00400009000BF00BF002207
:102E300011461E20FFF7CAF91E20FFF7B7F938BD6B
:102E40000010024000080040014691F83D000128B2
:102E500001D001207047022081F83D000868C06859
:102E600040F001000B68D860124B086898420BD004
:102E70000868B0F1804F07D00F4B0868984203D024
:102E80000E4B086898420CD10868806800F0070271
:102E9000062A0CD00868006840F001000B68186032
:102EA00005E00868006840F001000B681860002029
:102EB000D0E70000002C0140000400400008004062
:102EC0002DE9F04104460D46002700BF94F83C0070
:102ED000012802D10220BDE8F081012084F83C00E5
:102EE00000BF022084F83D002068866826F077063F
:102EF00026F47F46206886602868502833D00CDC92
:102F0000202850D004DC00284BD0102851D149E0B3
:102F1000302849D040284CD139E060282DD0702885
:102F200007D0B0F5805F03D0B0F5005F41D10DE070
:102F300041E0D5E902136A68206801F0F9F82068D9
:102F4000866846F077062068866034E0D5E902138B
:102F50006A68206801F0ECF82068806840F48040DE
:102F60002168886027E0EA686968206801F0B0F9A4
:102F70005021206801F0E7F81DE0EA6869682068E0
:102F800001F0B9F96021206801F0DDF813E0EA688A
:102F90006968206801F09CF94021206801F0D3F8AD
:102FA00009E000BF00BF00BF2968206801F0CBF82E
:102FB00001E0012700BF00BF012084F83D0000BFF1
:102FC000002084F83C0000BF384684E7704770B5A5
:102FD00004462068C5682068066906F002000228D9
:102FE00019D105F00200022815D1401F216808619F
:102FF000012020772068806900F0030018B1204686
:10300000FFF7E4FF05E0204600F018F9204600F045
:103010006BF90020207706F00400042819D105F090
:103020000400042815D1C0432168086102202077DC
:103030002068806900F4407018B12046FFF7C6FF91
:1030400005E0204600F0FAF8204600F04DF9002097
:10305000207706F00800082819D105F00800082894
:1030600015D1C04321680861042020772068C06919
:1030700000F0030018B12046FFF7A8FF05E0204646
:1030800000F0DCF8204600F02FF90020207706F051
:103090001000102819D105F01000102815D1C043D8
:1030A00021680861082020772068C06900F440701A
:1030B00018B12046FFF78AFF05E0204600F0BEF871
:1030C000204600F011F90020207706F0010048B1F9
:1030D00005F0010030B16FF0010021680861204661
:1030E00000F004F906F08000802809D105F0800086
:1030F000802805D1C043216808612046FFF7F0FD14
:1031000006F04000402809D105F04000402805D1D4
:10311000C04321680861204600F0FCF806F020005A
:10312000202809D105F02000202805D1C0432168BE
:1031300008612046FFF7D5FD70BD000010B586B0D0
:103140000446002002900390049005902068B0F19E
:10315000804F17D100BF1A48806940F00400184919
:1031600088610846806900F00400019000BF00BF3C
:103170000F20029002200390059002A91148FEF74B
:1031800009FE1AE010492068884216D100BF0C4899
:10319000806940F004000A4988610846806900F0AF
:1031A0000400019000BF00BF402002900220039065
:1031B000059002A90348FEF7EDFD06B010BD000022
:1031C0000010024000080140000400402DE9F041D9
:1031D00004460E461546002700BF94F83C0001281F
:1031E00002D10220BDE8F081012084F83C0000BF3C
:1031F00035B1042D09D0082D0CD00C2D14D10EE0C2
:103200003146206800F0A8FF10E03146206800F049
:10321000D3FF0BE03146206801F002F806E03146AA
:10322000206801F031F801E0012700BF00BF00BFB6
:10323000002084F83C0000BF3846D3E7704710B543
:1032400004460CB9012010BD94F83D0028B90020B7
:1032500084F83C00204600F025F8022084F83D0068
:10326000211D206800F022FF012084F8460000BFE5
:1032700084F83E0001213F200155402001554120A6
:10328000015500BF00BF012084F8420043200155D2
:10329000442001554520015500BF012084F83D0020
:1032A0000020D0E738B504460D492068884215D182
:1032B00000BF0C48C06940F002000A49C8610846D6
:1032C000C06900F00200009000BF00BF002211465C
:1032D0001D20FEF77BFF1D20FEF768FF38BD0000B4
:1032E00000040040001002407047000010B5044682
:1032F00006492068884208D101F092FA01F0EEFAFE
:1033000003480068401C0249086010BD00080040E6
:103310005000002070477047704700002DE9F84FBB
:103320000446206805682068C668206847694FF031
:103330000009CA4605F00F09B9F1000F0AD105F0DE
:10334000200038B106F0200020B1204601F037F807
:10335000BDE8F88FB9F1000F7BD007F0010018B974
:1033600006F49070002874D005F0010030B106F426
:10337000807018B1606C40F00100606405F00400DA
:1033800030B107F0010018B1606C40F002006064D9
:1033900005F0020030B107F0010018B1606C40F098
:1033A0000400606405F0080048B106F0200010B980
:1033B00007F0010018B1606C40F008006064606CB8
:1033C000002845D005F0200028B106F0200010B1FB
:1033D000204600F0F4FF20684069C0F3801A606C5A
:1033E00000F0080010B9BAF1000F2CD0204600F010
:1033F000A0FF2068406900F0400000B300BF00BF9C
:103400002168143151E8001F21F040002168143177
:1034100041E80002002AF3D100BFE06B50B17748C9
:10342000E16B4863E06BFEF749FC88B1E06B416BF0
:1034300088470DE02046FFF76FFF09E009E02046CE
:10344000FFF76AFF04E02046FFF766FF0020606494
:103450007EE7206B012877D105F01000002873D09B
:1034600006F010000028FAD000BF0020009020686D
:103470000068009020684068009000BF00BF20688E
:10348000406900F0400000285FD0E06B00684068B1
:103490001FFA80F8B8F1000F55D0A08D404552DDDD
:1034A000A4F82E80E06B8069202843D000BF00BFC5
:1034B00021680C3151E8001F21F4807021680C3123
:1034C00041E80002002AF3D100BF00BF00BF21681D
:1034D000143151E8001F21F001002168143141E846
:1034E0000002002AF3D100BF00BF00BF21681431E1
:1034F00051E8001F21F040002168143141E800022A
:10350000002AF3D100BF202084F84200002020636D
:1035100000BF00BF21680C3151E8001F21F01000EE
:1035200021680C3141E80002002AF3D100BFE06BB2
:10353000FEF799FB02206063A08DE28D801A81B2B4
:103540002046FFF7E8FE03E742E0A08DE18D401A38
:103550001FFA80F8E08DD0B3B8F1000F37D000BF6C
:1035600000BF21680C3151E8001F21F490702168E0
:103570000C3141E80002002AF3D100BF00BF00BFB8
:103580002168143151E8001F21F001002168143135
:1035900041E80002002AF3D100BF202084F8420055
:1035A0000020206300BF00BF21680C3151E8001FDC
:1035B00021F0100021680C3141E80002002AF3D10B
:1035C00000BF0220606341462046FFF7A4FEBFE62D
:1035D00005F0800030B106F0800018B1204601F0FF
:1035E0000BF8B5E605F0400030B106F0400018B128
:1035F000204600F0D4FEABE600BFA9E61F4300085A
:1036000010B504460CB9012010BDA06900B100E05E
:1036100000BF94F8410028B9002084F840002046FB
:1036200000F02AF8242084F841002068C06820F4C3
:1036300000502168C860204600F040FF2068006903
:1036400020F49040216808612068406920F02A0039
:10365000216848612068C06840F400502168C86053
:1036600000206064202084F8410084F8420000209B
:10367000606300BFC8E7000010B586B004460020B4
:10368000029003900490059038492068884237D111
:1036900000BF3748806940F480403549886108465A
:1036A000806900F48040019000BF00BF00BF084661
:1036B000806940F0040088610846806900F00400D9
:1036C000019000BF00BF4815029002200390032024
:1036D000059002A92748FEF75DFB4FF48060029039
:1036E00000200390049002A92248FEF753FB002219
:1036F00011462520FEF76AFD2520FEF757FD32E032
:103700001D49206888422ED100BF1948C06940F485
:1037100080201749C8610846C06900F480200190E4
:1037200000BF00BF00BF0846806940F00800886104
:103730000846806900F00800019000BF00BF08152E
:103740000290022003900320059002A90B48FEF787
:1037500021FB4FF40060029000200390049002A926
:103760000648FEF717FB06B010BD00000038014008
:10377000001002400008014000480040000C0140D9
:1037800070B504460D46164694F8420020280BD129
:1037900005B10EB9012070BD0020206332462946D4
:1037A000204600F009FFF6E70220F4E710B50446D2
:1037B0001049206888420DD10F480088401C0E49EE
:1037C000088001220D490E48FFF7DAFF0D49087005
:1037D00000F0D2FF0B4800780B49097808440949EA
:1037E0000978084420B109480078401C074908704E
:1037F00010BD00000038014066000020630000207A
:10380000C00100206B0000206C0000206D00002033
:103810002DE9F84F04460E46174699464FF0000A28
:1038200094F84100202850D106B117B90120BDE815
:10383000F88F00206064212084F84100FEF740FCEE
:103840008246A784E784A068B0F5805F04D1206930
:1038500010B90025B04602E035464FF000081EE0E2
:103860005346002280212046CDF8009000F006FF4C
:1038700020B1202084F841000320D8E745B9B8F8EA
:103880000000C0F308002168486008F1020803E066
:103890002878216848606D1CE08C401EE084E08C34
:1038A0000028DDD15346002240212046CDF800906B
:1038B00000F0E4FE20B1202084F841000320B6E7A8
:1038C000202084F841000020B1E70220AFE77047D4
:1038D00000BFFEE70120044908700448486000204A
:1038E000087201204872704784000020C001002047
:1038F0000FB4F8B5054621480078A84202DC1F48FD
:10390000406810B9F8BC5DF814FB00244FF48071D6
:103910001B48FCF797FE1948407A60B1042D0ADC79
:10392000184A52F82530C4F58071154A101916A2AC
:10393000FCF7D2FC04441148007A58B1FEF7C0FBF2
:103940000646C4F580710E4A101933460FA2FCF7E3
:10395000C3FC044408A80090C4F58071084A1019FB
:10396000009B079AFCF788FC0020009003494868F8
:10397000034900F071FE00BFC4E70000840000208E
:103980005C08002070000020257320005B256C750A
:103990005D20000000B585B00020019002900390EA
:1039A000049000BF2A48806940F0040028498861DB
:1039B0000846806900F00400009000BF00BF00BF0F
:1039C0000846806940F0080088610846806900F078
:1039D0000800009000BF00BF00224FF498511D481E
:1039E000FEF768FB00224FF480711B48FEF762FB74
:1039F0004FF4985001900120029000200390022083
:103A0000049001A91348FEF7C5F94FF480700190A6
:103A100001200290002003900220049001A90E488A
:103A2000FEF7B8F94FF41040019000200290039087
:103A300001A90948FEF7AEF9F82001900020029094
:103A4000039001A90348FEF7A5F905B000BD0000E9
:103A500000100240000C01400008014010B50F4862
:103A60000F4908604FF48270486000210C48816063
:103A7000C160022101610121416149028161182176
:103A8000C161802101620021416281620A21C1621B
:103A9000FEF744FF08B1FEF7DDF810BD0038004026
:103AA0009000002000B58DB0002009900A900B9086
:103AB0000C90079008901C216846FCF7E5FD4FF03C
:103AC00080402B49086047204860002128488160D9
:103AD00040F2E731C160002101618161FFF744F9E3
:103AE00008B1FEF7B7F84FF48050099009A92048B3
:103AF000FFF7E6F908B1FEF7ADF81D48FFF79FFBA9
:103B000008B1FEF7A7F800200790089007A9184809
:103B1000FFF7E8F808B1FEF79DF80020009001904B
:103B200002900490002269461148FFF74FFB08B14C
:103B3000FEF790F8042269460D48FFF747FB08B1ED
:103B4000FEF788F8082269460948FFF73FFB08B1ED
:103B5000FEF780F80C2269460548FFF737FB08B1ED
:103B6000FEF778F80248FFF7E9FA0DB000BD000053
:103B7000E800002000B589B00020079008901C21C3
:103B80006846FCF781FD17481749086040204860E7
:103B90000021154881604FF6FF71C160002101616D
:103BA0008161FFF74CFB08B1FEF754F80020079045
:103BB000089007A90C48FFF795F808B1FEF74AF8F6
:103BC000002000900190029004900022694606486F
:103BD000FFF7FCFA08B1FEF73DF80348FFF7AEFA2D
:103BE00009B000BD000400403001002000B587B0DE
:103BF00000200390049005900690019002901448D4
:103C0000144908603F20486000211248816040F25A
:103C1000E731C160002101618161FFF7A5F808B1BA
:103C2000FEF718F84FF48050039003A90948FFF7F6
:103C300047F908B1FEF70EF800200190029001A9A3
:103C40000448FFF74FF808B1FEF704F807B000BDCD
:103C5000000800407801002010B50B480B490860AF
:103C60004FF4E1304860002108488160C160016183
:103C70000C21416100218161C161FFF7C1FC08B1E4
:103C8000FDF7E8FF10BD000000380140C001002032
:103C900010B50B480B4908604FF4E1304860002133
:103CA00008488160C16001610C214161002181618E
:103CB000C161FFF7A5FC08B1FDF7CCFF10BD000006
:103CC000004800400802002000BFFEE700BFFEE7FA
:103CD0007047000008B508490968C9084FF47A72AE
:103CE000B1FBF2F14143009100BF00BF00994A1EB1
:103CF00000920029F9D108BD0C00002010B5012266
:103D000011020C48FEF7D6F90120FEF72FF8002229
:103D10004FF480710748FEF7CDF90120FEF726F831
:103D2000012211020348FEF7C5F90A20FEF71EF82A
:103D300010BD000000080140F8B504460E461546C7
:103D40003346012202212046009500F06DF828B18B
:103D5000606D40F0200060650320F8BD334600220E
:103D600080212046009500F05FF828B1606D40F09A
:103D7000200060650320F0E70020EEE710B592B068
:103D800010A1194800F068FC002413E011A9204696
:103D900000F0F2F8BDF84430224614A101A8FCF767
:103DA00085FA01A9104800F057FC0120FDF7DEFF5D
:103DB000601CC4B23F2CE9DD12A10B4800F04CFCA2
:103DC00012B010BD0D0A3D3D3D20535049205265B3
:103DD0006769737465722044756D702053746172E5
:103DE00074203D3D3D0D0A00C00100205265675B17
:103DF0003078253032585D203D20307825303458D9
:103E00000D0A00003D3D3D20535049205265676931
:103E1000737465722044756D7020456E64203D3D5D
:103E20003D0D0A0D0A0000002DE9F84F04460D462D
:103E300090461E46DDF82890FEF742F9A0EB0900F7
:103E4000371AFEF73DF982462C480068C0F3CB30A4
:103E50007843009045E0701C002842D0FEF730F90E
:103E6000A0EB0A00B84200D2A7BB2068406820F04F
:103E7000E000216848606068B0F5827F0DD1A068DD
:103E8000B0F5004F03D0A068B0F5806F05D1206871
:103E9000006820F0400021680860A06AB0F5005F6B
:103EA0000DD100BF2068006820F400502168086030
:103EB0002068006840F400502168086000BF0120BD
:103EC00084F8510000BF002084F8500000BF032098
:103ED000BDE8F88FFFE7009800B900270098401E62
:103EE0000090206880682840A84201D1012000E0AD
:103EF00000204045AFD10020EAE700000C00002080
:103F00007047000001200C49486005200B494860BB
:103F100019200B49486032200A49486064200A4948
:103F20004860C820094948604FF4FA700849486061
:103F30004000084948607047100000201800002029
:103F40002000002028000020300000203800002041
:103F5000400000204800002001B582B04FF0FF3043
:103F6000012301AA02A900900248FEF77BFD9DF8FB
:103F700004000EBD900000202DE9F04104460D46DE
:103F8000012211030C48FEF795F844F04000FFF7BA
:103F9000E3FF0020FFF7E0FF07460020FFF7DCFF0C
:103FA000064647EA0620288000224FF48051024846
:103FB000FEF780F8BDE8F081000C014010B50B4819
:103FC000FEF742FF0A48FEF73FFF0A48FEF73CFFB4
:103FD000012209490948FFF7D3FB09A1074800F06E
:103FE0003BFB1420FDF7C2FE10BD0000E8000020DE
:103FF000300100207801002063000020C001002073
:1040000075736172745F315F6F6B0D0A00000000A1
:1040100010B5FEF75BF810BD00B58FB0282105A8DC
:10402000FCF732FB14216846FCF72EFB02200590BA
:104030000120099010200A9002200C9000210D917F
:104040004FF460110E9105A8FEF736FA08B1FDF79E
:1040500001FE0F20009002200190002002904FF4FA
:10406000806003900020049002216846FEF700F96A
:1040700008B1FDF7EFFD0FB000BD704710B5024865
:10408000FEF7A5FF10BD0000E800002010B50248B3
:10409000FEF79DFF10BD00003001002010B5024862
:1040A000FEF795FF10BD00007801002010B50268F2
:1040B0001C4B984208D0B0F1804F05D01A4B984263
:1040C00002D01A4B984203D122F070024B681A4377
:1040D000144B984208D0B0F1804F05D0124B984253
:1040E00002D0124B984203D122F44072CB681A439B
:1040F00022F080034C6943EA040202608B68C362C9
:104100000B688362074B984201D10B69036301235B
:104110004361036903F001031BB1036923F0010349
:10412000036110BD002C0140000400400008004065
:1041300030B50C46816821F47F4142EA03252543CE
:104140002943816030BD0A46816821F0700142F048
:10415000070319438160704730B5026A056A25F08C
:10416000010505624368846924F0700424F00304A7
:104170000D682C4322F002028D682A430D4DA8429F
:1041800006D100BF22F00802CD682A4322F00402C3
:10419000084DA84207D123F4807323F400734D69BE
:1041A0002B438D692B43436084614D6845630262F4
:1041B00030BD0000002C014030B5026A056A25F0D0
:1041C000100505624368846924F4E04424F44074D3
:1041D0000D6844EA052422F020028D6842EA0512A7
:1041E0000E4DA84207D100BF22F08002CD6842EAFE
:1041F000051222F04002094DA84209D123F4806340
:1042000023F400634D6943EA85038D6943EA85031E
:10421000436084614D688563026230BD002C0140BB
:1042200030B5026A056A25F4807505624368C46981
:1042300024F0700424F003040D682C4322F400726F
:104240008D6842EA05220F4DA84207D100BF22F433
:104250000062CD6842EA052222F48062094DA8423C
:1042600009D123F4805323F400534D6943EA051325
:104270008D6943EA05134360C4614D68C5630262FA
:1042800030BD0000002C014030B5036A056A25F4FA
:10429000805505624468C26922F4E04222F440720B
:1042A0000D6842EA052223F400538D6843EA053382
:1042B000064DA84204D124F480444D6944EA851493
:1042C0004460C2614D680564036230BD002C01404A
:1042D00030B50B461446026A056A25F001050562F1
:1042E000816921F0F00141EA041122F00A021A4327
:1042F0008161026230BD30B50B461446026A056A20
:1043000025F010050562816921F4704141EA04310C
:1043100022F0A00242EA03128161026230BD70B550
:1043200005466C6A0020E085E0842046FEF7F4FF35
:1043300070BD00BF00BF02680C3252E8002F22F4AB
:10434000907102680C3242E80013002BF3D100BFD9
:1043500000BF00BF0268143252E8002F22F00101B2
:104360000268143242E80013002BF3D100BF016B46
:1043700001290ED100BF00BF02680C3252E8002FA5
:1043800022F0100102680C3242E80013002BF3D136
:1043900000BF202180F8421000210163704710B552
:1043A00004462068C06820F040002168C8602020D2
:1043B00084F841002046FFF78AFA002010BDF8B5C6
:1043C000044694F84200222875D1A068B0F5805FB9
:1043D0000CD1206950B90025A66A20684068C0F356
:1043E00008003080A06A801CA06215E0A56A002643
:1043F000A068B0F5805F03D0A06828B9206918B91B
:1044000020684068287004E02068406800F07F0061
:104410002870A06A401CA062E08D401E80B2E0853A
:10442000002846D12068C06820F020002168C860BC
:104430002068C06820F480702168C86020684069E6
:1044400020F0010021684861202084F8420000200B
:104450006063206B012826D10020206300BF00BFCD
:1044600021680C3151E8001F21F0100021680C3147
:1044700041E80002002AF3D100BF2068006800F084
:10448000100010280AD100BF0020009020680068AA
:10449000009020684068009000BF00BFA18D2046BA
:1044A000FEF739FF02E02046FFF780F90020F8BD53
:1044B00001E00020FBE70220F9E7000070B50446A8
:1044C0002168096921F44051E268114322681161B1
:1044D0002269A1681143626941EA02052168C9683D
:1044E00041F20C62914329432268D16021684969F5
:1044F00021F44071A2691143226851612D4A21685B
:10450000914202D1FDF790FF01E0FDF77DFF00EB46
:10451000C00101EB001162689200B1FBF2F100EB07
:10452000C00202EB001263689B00B2FBF3F264234B
:10453000B2FBF3F202EBC20303EB0212A1EB820126
:10454000322202EB01116422B1FBF2F101F0F00121
:1045500000EBC00202EB001263689B00B2FBF3F2B7
:104560006423B2FBF3F201EB021200EBC00101EB9A
:10457000001163689B00B1FBF3F100EBC00303EB98
:1045800000136668B600B3FBF6F36426B3FBF6F3DC
:1045900003EBC30606EB0313A1EB8301322303EB0A
:1045A00001116423B1FBF3F101F00F011144226802
:1045B000916070BD0038014010B5034699629A853C
:1045C000DA8500205864222083F84200186928B157
:1045D0001868C06840F480701C68E0601868406922
:1045E00040F001001C6860611868C06840F020005D
:1045F0001C68E060002010BD014691F841002128B0
:1046000028D18868B0F5805F0BD1086948B90A6A7B
:104610001088C0F308000B685860086A801C0862A4
:1046200005E00B6A581C086218780B685860C88C43
:10463000401E80B2C88458B90868C06820F0800065
:104640000B68D8600868C06840F040000B68D8600C
:10465000002070470220FCE770B506460C46002596
:1046600002E0641C681CC5B220780028F9D1611BE7
:104670000A232A463046FFF7CBF870BD2DE9F843F0
:1046800004460D4617469846089E31E0701C70B3EC
:10469000FDF716FDA0EB0800B04200D816B90320C4
:1046A000BDE8F8832068C06800F00400F8B1802DF0
:1046B0001ED0402D1CD020680068C0F3C000B0B1EF
:1046C00000BF0020009020680068009020684068CB
:1046D000009000BF00BF2046FFF72BFE082060645B
:1046E00000BF002084F8400000BF0120D8E7FFE7AA
:1046F000206800682840A84201D1012000E0002085
:10470000B842C3D00020CBE710B50248FEF706FE42
:1047100010BD0000C001002010B51448007800EB67
:10472000C010134901EB400090F80001E0B10F48C0
:10473000007800EBC0100B4603EB400090F801211D
:104740000A48007800EBC01003EB400164230948DD
:10475000FFF75EF800200549097801EBC111044A12
:1047600002EB410181F8000110BD0000650000204E
:1047700058060020C00100202648007801280BD0F0
:104780000120244908700020497801EBC111224A18
:1047900002EB410181F80101204800781D49497868
:1047A00001EBC1111C4A02EB41011A4A527802EB9B
:1047B000C212194B03EB420292F8012188541548AA
:1047C000407800EBC010194601EB400090F8010161
:1047D000401C1049497801EBC1111A4602EB410116
:1047E00081F801010B48407800EBC010114601EB45
:1047F000400090F80101FF2808DBFF2005494978B7
:1048000001EBC11102EB410181F8010100200149D6
:104810008870704760000020580600206300002068
:104820001348007810B312488078401C10498870F3
:1048300008468078052819DB002008700120497897
:1048400001EBC1110B4A02EB410181F8000108485C
:1048500040780949087006484078401C044948706F
:1048600008464078022801DB0020487070470000AD
:1048700060000020580600206500002010B5144894
:10488000007800EBC010134901EB400090F80001E4
:10489000E0B10F48007800EBC0100B4603EB40007E
:1048A00090F801210A48007800EBC01003EB4001AA
:1048B00064230948FEF7ACFF00200549097801EBA5
:1048C000C111044A02EB410181F8000110BD000052
:1048D0005900002050020020C00100201348007839
:1048E00010B312488078401C1049887008468078C0
:1048F000052819DB002008700120497801EBC1115F
:104900000B4A02EB410181F800010848407809494F
:10491000087006484078401C0449487008464078B2
:10492000022801DB0020487070470000540000207E
:10493000500200205900002000BFFEE7FFF73EFBB9
:10494000FFF7DCF9FFF71AFA00BFFFF797FFFFF751
:10495000E3FE1148FDF770F910B10F48FDF77DF93E
:104960000E48FDF769F910B10C48FDF776F90C48CF
:10497000FDF762F910B10A48FDF76FF90948FDF734
:104980005BF90028E1D00748FDF767F906A101208F
:10499000FEF7AEFFD9E70000100000202000002045
:1049A0003000002048000020746573740D0A000078
:1049B000490050EAC12018BF04204A0D18BF40F03A
:1049C000010040F2FF72B2EB515F08BF40F00200FD
:1049D000012808BF0520704702480068C0F3022084
:1049E000704700000CED00E010B5002804DB0A075A
:1049F000130E054A135406E00A07140E034A00F08A
:104A00000F031B1FD45410BD00E400E018ED00E0BC
:104A100030380A2801D20120704700207047FDF786
:104A200061FBFFF7F9FAFEF7B5FFFFF717F8FFF79D
:104A300039F8FFF79FF8FFF70FF9FFF729F9FFF7AC
:104A4000D5F801E0FFF77AFFFCE7000010B5002978
:104A50000AD00878002807D005487844FCF7DAFC2B
:104A6000002801D0002010BD0248784410BD00008D
:104A7000C2010000BA01000010B500290AD0087870
:104A8000002807D005487844FCF7C4FC002801D072
:104A9000002010BD0248784410BD0000B2010000A3
:104AA000AA010000FCF7DAB8FCF70EBA020304050D
:104AB000060708090A0B0C0D0E0F1010010200006A
:104AC00000000000000001020304060708090000BE
:104AD00000000102030430313233343536373839BF
:104AE000414243444546403058003031323334353A
:104AF0003637383961626364656640307800040097
:104B0000000800000000000000020001000010008A
:104B100000000000000000003031323334353637F9
:104B200038396162636465667870003031323334DD
:104B30003536373839414243444546585000000025
:104B400002400000000000A000000000054000003E
:104B5000000000C8000000000C4000000000409C65
:104B600000000000194000000020BCBE0000000052
:104B700034400000BFC91B8E00000004B540000097
:104B8000504BCFD06607E2CF010000006C4100001F
:104B90003E8251AADFEEA73401000000D942000096
:104BA000DCB5A0E23A301F97FFFFFFFFB4450000DD
:104BB000FD25A0C8E9A3C14FFFFFFFFFFF3F000095
:104BC0000000008000000000FF3F000000000080A7
:104BD000000000005B5741524E5D20005B494E468D
:104BE0004F5D20005B44454255475D005B464154A4
:104BF000414C5D005B4552524F525D00504D0008E4
:104C0000000000209000000028010008E04D00088E
:104C100090000020300F0000440100081C0000003C
:104C200043000000F8FFFFFF0C0000000E00000032
:104C30000F0000002E0000001001000043000000E3
:104C4000F8FFFFFF004040404040404040404141AD
:104C50004141414040404040404040404040404051
:104C600040404040400502020202020202020202EB
:104C700002020202022020202020202020202002E8
:104C80000202020202029090909090901010101078
:104C90001010101010101010101010101010101014
:104CA00002020202020288888888888808080808A8
:104CB0000808080808080808080808080808080874
:104CC000020202024000000000000000000000009C
:104CD00000000000000000000000000000000000D4
:104CE00000000000000000000000000000000000C4
:104CF00000000000000000000000000000000000B4
:104D000000000000000000000000000000000000A3
:104D10000000000000000000000000000000000093
:104D20000000000000000000000000000000000083
:104D30000000000000000000000000000000000073
:104D40000000000000000000BDF1FFFF89EBFFFF45
:104D500000000000100000000100000000127A00B6
:104D60000000000000000000000000000000000043
:104D70000000000000000000000000000000000033
:104D80000000000000000000000000000000000023
:104D90000000000000000000000000000000000013
:104DA0000000000000000000000000000000000003
:104DB00000000000000000000000000000000000F3
:104DC000E44B0008DC4B0008D44B0008F44B00080F
:104DD000EC4B000801000000000000000001000092
:04000005080000ED02
:00000001FF
