:020000040800F2
:10000000B01000207902000825520008F9370008D6
:10001000153D0008751C0008D162000800000000B2
:10002000000000000000000000000000BD580008B3
:10003000931C0008000000008D560008355A000887
:10004000930200089302000893020008930200083C
:10005000930200089302000893020008930200082C
:10006000930200089302000893020008930200081C
:10007000930200089302000893020008930200080C
:1000800093020008930200089302000893020008FC
:1000900093020008930200089302000893020008EC
:1000A00093020008930200089302000893020008DC
:1000B000A15A0008B15A0008C15A0008930200086A
:1000C00093020008930200089302000893020008BC
:1000D00093020008B55F000893020008C55F00089E
:1000E00093020008930200089302000800F002F84F
:1000F00000F0B2F80AA090E8000C82448344AAF110
:100100000107DA4501D100F0A7F8AFF2090EBAE80D
:100110000F0013F0010F18BFFB1A43F0010318473B
:1001200090A10000B0A100000A444FF0000C10F8AC
:10013000013B13F0070408BF10F8014B1D1108BF65
:1001400010F8015B641E05D010F8016B641E01F805
:10015000016BF9D113F0080F1EBF10F8014BAD1C55
:100160000C1B09D16D1E58BF01F801CBFAD505E073
:1001700014F8016B01F8016B6D1EF9D59142D6D3CD
:10018000704700000023002400250026103A28BFF5
:1001900078C1FBD8520728BF30C148BF0B607047F9
:1001A0006E2900F03883702900F09D81662906F0E1
:1001B000D383652906F0D083672906F0CD836129B2
:1001C00006F0CC8303681B0A28BF41F0800169292F
:1001D00000F00E81642900F00B81752900F0088180
:1001E0006F2900F02684782900F06981E92900F060
:1001F000C183E42900F0BE83F52900F0BB83EF2919
:1002000000F02384F82900F068810368DB0928BF27
:1002100041F08001632900F04283732900F0478395
:10022000E32900F0F987F32900F0FE8700207047EA
:100230001FB501F04BF804000020002106F076FB0A
:10024000401C60600020002106F05AFBE06000F0D6
:1002500065FA1FBD10B510BD01F00AF81146FFF791
:10026000E7FF06F03EFA01F0E7F803B4FFF7F2FF0C
:1002700003BC01F031F900000948804709480047F4
:10028000FEE7FEE7FEE7FEE7FEE7FEE7FEE7FEE746
:10029000FEE7FEE704480549054A064B70470000A3
:1002A0009F5A0008ED000008B00A0020B01000209E
:1002B000B00C0020B00C00207CB51D4616460C008A
:1002C000009001D02044401E074B7B442A466946DB
:1002D0000190304600F0B9FA05461CB1002069468D
:1002E00000F0C6FA28467CBDAD0500000FB41CB571
:1002F000084B06AA7B4469460090059800F0A5FAD1
:1003000004460020694600F0B3FA20461CBC5DF8A4
:1003100014FB0000790500000FB47CB50C0009AA9D
:10032000009001D02044401E084B7B446946019058
:10033000089800F08AFA05461CB10020694600F0D2
:1003400097FA28467CBC5DF814FB00004D050000C0
:1003500070B5044685690068C10601D5302600E005
:100360002026C00707D070BDD4E901213046904750
:10037000206A401C20626D1EF6D570BD70B5044623
:1003800085690078C00707D170BDD4E9012120201C
:100390009047206A401C20626D1EF6D570BD70B576
:1003A0000C460546012A05D02878800600D5EA6962
:1003B000002302E0012305E05B1C934202D2E05CD3
:1003C0000028F9D1A869E618C01AA861286A18445B
:1003D00028622846FFF7BCFF04E0D5E9012114F8A4
:1003E000010B9047B442F8D32846FFF7C7FF70BD12
:1003F0002DE9F0410646002410687529314616A5FE
:1004000010D000F09DF9002802DA404213A507E061
:1004100031688A0701D512A502E0490704D511A564
:10042000012401E000F095F900210A2206F12407D9
:1004300009E0B0FBF2FCB0FBF2F302FB1C00303031
:1004400078541846491C0028F3D123462A463046E2
:10045000BDE8F04100F086B9000000002D0000006A
:100460002B00000020000000F0B40D4601880905B3
:1004700002D5214C7C4402E01F4C7C440E34002108
:1004800000F1240608E002F00F071209E75D42EAD6
:1004900003721B097754491C52EA0307F3D102780F
:1004A0000023120704D5702D06D009B102231134A0
:1004B0002246F0BC00F056B901231034F8E770B5BD
:1004C00004460D462146106800F043F902462946CD
:1004D0002046BDE870400023C6E7D21D22F0070386
:1004E000D3E90023C0E70368126843F020030360E8
:1004F0000823C3610023B7E7729C00002DE9F05F79
:10050000894604464FF0000ADFF874B1FB44C0F896
:1005100020A02046E1688847002874D0252806D00E
:10052000D4E901219047206A401C2062F1E70026AF
:100530005F462046E16888472028054607DB312DC5
:1005400005D2781910F8200C08B10643F1E7B0077E
:1005500001D526F00406C4F81CA00027C4F818A092
:100560002A2D09D0284606F0B5F838B304EB8708E1
:10057000303DC8F8185019E059F8041B204604EB28
:1005800087029161E1688847012F054618D1E0692B
:10059000002820DA26F020061DE0D8F8180000EB2D
:1005A000800005EB40003038C8F818002046E168AC
:1005B0008847054606F08EF80028EED1012F0AD0B4
:1005C0002E2D08D12046E16888477F1C0546022F62
:1005D00046F02006C4DBA069002803DA404246F05A
:1005E0000106A061F00701D026F010066C2D0BD09B
:1005F000682D09D04C2D39D06A2D35D0742D35D0C9
:100600007A2D33D016E038E0E1682F46204688473F
:10061000B842054609D16C2F26D04FF48060E168BE
:10062000064320468847054604E06C2F1AD04FF455
:10063000807006430DB3A5F14100192802D820357A
:1006400046F400664A462946204626604E46FFF795
:10065000A7FD80B101280BD0F61D26F0070000F1A0
:10066000080956E74020E4E78020D8E70020D6E7D5
:1006700006F104094DE7284652E7206ABDE8F09FDD
:10068000029C00004FF000020429C0F0128010F01C
:10069000030C00F01B80CCF1040CBCF1020F18BF5E
:1006A00000F8012BA8BF20F8022BA1EB0C0100F0F1
:1006B0000DB85FEAC17C24BF00F8012B00F8012BC4
:1006C00048BF00F8012B70474FF0000200B51346F9
:1006D00094469646203922BFA0E80C50A0E80C5062
:1006E000B1F12001BFF4F7AF090728BFA0E80C5013
:1006F00048BF0CC05DF804EB890028BF40F8042B0C
:1007000008BF704748BF20F8022B11F0804F18BF78
:1007100000F8012B704770477047704770B5064C62
:100720007C44064D7D4403E0206820448047241D1E
:10073000AC42F9D170BD0000D89C0000E09C0000E4
:1007400009684A0501D540B27047C905FCD500B219
:10075000704709684A0501D5C0B27047C905FCD584
:1007600080B270472DE9F0470D46994692460446FF
:1007700000F124080168880604D5E06921F0100121
:10078000216000E00120A84201DD471B00E00027B6
:10079000A1697A1902EB0900081AA0612078C00645
:1007A00002D42046FFF7D4FD002608E0D4E9012159
:1007B0001AF806009047206A401C761C20624E45BD
:1007C000F4DB2078C0060AD52046FFF7C1FD06E01D
:1007D000D4E9012130209047206A401C2062381E55
:1007E000A7F10107F4DC07E0D4E9012118F80500BE
:1007F0009047206A401C2062281EA5F10105F3DC09
:100800002046FFF7BBFD2078000602D50220BDE898
:10081000F0870120FBE711680268006A530501D5E3
:1008200008700AE0D30501D5088006E0130603D559
:10083000C217C1E9000200E0086001207047000013
:1008400001694A1C02610878704700B58FB0CDE994
:1008500001310021059105497944CDE90310114684
:100860006846FFF74BFE0FB000BD0000E5FFFFFF3D
:100870000A6802F8010B0A607047D1E900239A4226
:1008800002D2531C0B601070704710B5436913B14E
:10089000AFF3008001E0FFF782FD012010BD127868
:1008A00000F124010A7000224A700122EDE711686C
:1008B0004FF0FF32E9E700002DE9FF5F15468A4659
:1008C0000446DFF8AC80F8440027D8E900103E4623
:1008D000CDE9001010E03AF816106A4602A800F0C0
:1008E000A7FC411C07D02178890603D5E269391895
:1008F00091420DD80744761C2078800602D5E06925
:10090000B84205DDAE42E6DB3AF816000028E2D137
:10091000A069C01BA0612046FFF71AFDD8E90010AE
:10092000CDE90010002017E03AF818106A4602A836
:1009300000F07EFCB0F1FF3F81460BD000250DF1A9
:10094000080B05E0D4E901211BF8050090476D1C58
:100950004D45F7D308F10100B0428046E4DB206A40
:10096000384420622046FFF709FDBDE8FF9F0000E4
:100970005A9800002DE9F0418046D21D22F007026E
:100980000025D2E90002F52915A614D0011E72F146
:10099000000106DA0023D0EB030063EB020211A68C
:1009A00008E0D8F800108B0701D50FA602E0490730
:1009B00001D50EA601251146002408F1240704E004
:1009C00000F04EF830323A55641C50EA0102F7D17B
:1009D0002B46324621464046BDE8F041FFF7C2BEF5
:1009E000000000002D0000002B000000200000008F
:1009F00030B4002100F1240408E002F00705D20819
:100A0000303542EA4372DB086554491C52EA03055B
:100A1000F3D10468002310A2250707D5A40600D44B
:100A200021B1C46901230DA2641EC46130BCFFF76B
:100A300099BE10B5044621461068FFF78AFE0246AB
:100A40002046BDE810400023D2E7D21D22F0070166
:100A5000D1E90023CCE700000000000030000000D6
:100A600030B5B0F10A024FEA900E71F100034EEA80
:100A7000817EB0EB0E0061EB91014FEA101E4EEA51
:100A8000017E10EB0E0041EB11114FEA102E4EEAE1
:100A9000016E10EB0E0041EB11214FEA104E4EEAB1
:100AA000014E10EB0E0041EB1141401841F10001E5
:100AB0004FEAD00040EA41704FEAD10110EB8005C7
:100AC0004FEA810444EA907444EB01046D1944EB4D
:100AD0000404521BA3414FF0000348BF0A3200D563
:100AE00030BD401C41F1000130BD70472DE9FF4F82
:100AF0000C461E464FF0FF378BB0D2E90001DDF8FF
:100B000060800A908A46C1F30A5505B93D46002126
:100B100008464FF00000BAF1000F00F4400005DA7B
:100B200000EB80004FF4400101EA50004FEA905979
:100B3000B9F1010F00DDB9460A9850EA4A000ED01B
:100B400044F61050A5F2FF3545432F14B8F1000FBD
:100B50001ED07542291E1EDDC9F100021CE0B8F14D
:100B6000010F4FF0000001D0302103E0F24305E017
:100B70002154401CB042FBDB3046002200212154AE
:100B80000B99C1F80880C1E900200FB0BDE8F08FD3
:100B9000BD1B6D1CDEE74A4600DA694206A800F07C
:100BA000D9FB06AB93E8070003AB83E80700504688
:100BB0000A9900F097FC8DE80700A0F500501F3857
:100BC00000900398002D0ADD42F21F014A460844B6
:100BD000002303A90390684600F000FF09E0A0F598
:100BE00000504A461F38002303A90390684600F0CE
:100BF0000AFF8DE807000004000C03D04FF0FF301F
:100C0000410800E01046B8F1000F03D00022009226
:100C100015461EE0751E05D4FFF722FF30326255DF
:100C20006D1EF9D5B3460122084302D000227F1C75
:100C300004E02078302801D100227F1E002A099785
:100C400084D01DE0112D07DAFFF70AFF303262551C
:100C50006D1C50EA0102F5D1084302D00098C8B1DA
:100C60000EE00021681E05E0235C625C63542254A0
:100C7000401E491C8142F7DBAB46A81B401E099071
:100C8000002004F80B000B98099AC0F80880C0E90E
:100C9000002B7AE711264FF0000857E72DE9F04FB7
:100CA00088460446D21D22F0070191B0D1E9000127
:100CB000CDE90A0105F0DEFC02460B98C00F01D019
:100CC0002D2007E02068810701D52B2002E020219C
:100CD00001EAC000032A099001D0072A05DB034678
:100CE0004146204600F0F6FA0BE12078800601D557
:100CF000E06900E00620B8F1650F814606D0B8F142
:100D0000660F18D0B8F1670F70D131E00020B9F14B
:100D1000110F009001DB112301E009F101030AAA80
:100D200001A90CA8FFF7E2FEDDE90C70002609F12D
:100D30000105834647E001204B4600904FF00047F5
:100D40000AAA01A90CA8FFF7D1FEDDE90DB00C99A4
:100D50005D46002610B909F101000D18B9EB050038
:100D600003D4C0F1FF3609F10105A5EB09002BE022
:100D7000B9F1010F01DA4FF001090020B9F1110FAB
:100D80000090484601DD112300E003460AAA01A9AC
:100D90000CA8FFF7ABFEDDE90C704D46002683463C
:100DA000207800070AD4AB4500DA5D4601A8012D82
:100DB00004DD411911F8011C302907D04F4502DA32
:100DC00017F1040F04DA012082460FE06D1EEEE7F2
:100DD000002F02DCED1B3E4403E0781CA84200DD3E
:100DE0007D1CB81B00F1010A4FF000472078000776
:100DF00003D4AA4501DB4FF0FF3A0021B7F1004FC1
:100E00000DF143088DF8431024D002202B23002F2E
:100E100001DA7F422D230A21021EA0F1010000DC2D
:100E20005FB197FBF1FC97FBF1F201FB1C7C1746CD
:100E30000CF1300C08F801CDEEE7A8F101000370C9
:100E40002188090501D5452100E06521A0F10108AF
:100E500000F8011C09980FA9A1EB0807FF1D00B1BC
:100E60000120411901EBEA70A1693844081A401EBB
:100E7000A0612078C00602D42046FFF769FA0998DD
:100E800028B1D4E901219047206A401C20622078D3
:100E9000C00622D52046FFF75BFA1EE0002E04DBD9
:100EA000B34502DD01A8805D00E03020D4E90121D6
:100EB0009047206A401C2062761CAAF101005FEA7C
:100EC000000A0AD100F002FAC0680168405CD4E967
:100ED00001219047206A401C2062281EA5F10105CF
:100EE000DCDC07E0D4E9012118F8010B9047206A07
:100EF000401C2062381EA7F10107F3DC2046FFF7F3
:100F00003DFA032011B041E62DE9F04F04460D46AD
:100F1000D21D22F0070089B0D0E900974846394633
:100F200005F0A8FB0246F80F01D02D2307E020684A
:100F3000810701D52B2302E0202101EAC0038DF8AF
:100F400020300BB1012000E00020032A824601D0AE
:100F5000072A04DB2946204600F0BCF93FE120784F
:100F6000800601D40D2500E0E569C7F30A560D2D72
:100F700049DA00214FEA175B08464FF00000002FC6
:100F800000F4400007DA00EB80004FF4400100EB72
:100F9000D07001EA60008115012901DD4FF0FF31B9
:100FA00000224FEA850CBCF1180F06D31346ACF1B2
:100FB00018004FF08052C24003E04FF4801323FA30
:100FC0000CF30CF10C0CBCF1200F04D3ACF1200C91
:100FD00009FA0CF001E007FA0CF000294FF0004884
:100FE00001DD18B90FE00ED140450CD319EB020911
:100FF0005F4121B9404502D19F4329EA0209BBEB79
:10100000175F00D0761C2088000502D57B48784405
:1010100002E07A487844193808AA302302F80A30E6
:10102000037C0AF10101002E0AF1020A53546A46B8
:1010300002DC4FF0300101E04FF031014FF00108C8
:101040008DF8001002D0A6F2FF3603E059EA4701FE
:1010500000D06B4E002D02DC2178090704D54FF03B
:1010600002082E218DF80110C44600210BE0C7F3C1
:1010700003433F01C35C491C6D1E02F8083005297B
:1010800008F1010801DA002DF1DC00210CE000EB91
:101090001973491C1B786D1E082902F808304FEAA5
:1010A000091908F1010801DA002DF0DC21688B062E
:1010B00002D516E0A8F10108E04505DD02EB0803C2
:1010C00013F8013C302BF5D0B8F1000F09DD02EB2D
:1010D000080313F8013C2E2B03D1090701D4A8F112
:1010E0000108002D05DD3E2102F808106D1E08F1F3
:1010F0000108407C002E02F8080008F1010804DA1B
:101100002D20764202F8080002E02B2002F80800A9
:101110000A214FF47A70864208F101080BDB96FB36
:10112000F0F3303302F8083096FBF0F308F10108D1
:1011300000FB136601E0642E0CDB642096FBF0F3E9
:10114000303302F8083096FBF0F308F1010800FB99
:10115000136601E00A2E06DB96FBF1F0303002F850
:10116000080008F1010896FBF1F001FB1060303037
:1011700002F80800A16908F1010808EB050202EB7A
:101180000A00081AA0612078C00602D42046FFF7A2
:10119000DFF8216A08AE01EB0A00206204E0D4E91E
:1011A000012116F8010B9047BAF1010AF7D2207815
:1011B000C00602D52046FFF7CBF86E4609E016F8C8
:1011C000010B3E280FD0D4E901219047206A401C32
:1011D0002062B8F10108F2D22046FFF7CFF809B03B
:1011E0000320BDE8F08F206A2844206203E0D4E9A0
:1011F0000121302090476D1EEBD3F8E72D910000C0
:1012000002FCFFFF10B5436913B1AFF3008001E0AA
:10121000FFF752FB012010BD128800F124018284E7
:101220000022C2840122EDE711684FF0FF32E9E7A6
:1012300070B516460C46054600F040F8036893F872
:101240000101012806D0FF2C0FD8185D68B10120DC
:101250002C7070BDD3F807013246214603F2071304
:1012600003442846BDE8704018474FF0FF3070BD7A
:10127000754600F0EBF8AE4605006946534620F08F
:101280000700854618B020B5FFF704F8BDE82040F8
:101290004FF000064FF000074FF000084FF0000B32
:1012A00021F00701AC46ACE8C009ACE8C009ACE8E5
:1012B000C009ACE8C0098D467047000010B500F0C9
:1012C00005F8001D10BD00BF6556000000487047BE
:1012D0006C0A00202DE9F0411F46044603260168F0
:1012E000072A01F4006004DB08B116A505E016A585
:1012F00003E008B115A500E015A521F0100020605D
:10130000A069C01EA0610FB1401EA0612046FFF77A
:101310001FF84FB1D4E9012138469047206A401C9C
:101320002062C01C206206E0206AFAE7D4E90121AD
:1013300015F8010B9047761EF8D22046FFF71EF8ED
:10134000BDE8F0814E414E006E616E00494E460090
:10135000696E66002DE9F047814616468AB0354829
:1013600078440DC88DE80D0032487844801C03ACE9
:101370000DC884E80D0041F69B300844372190FBEE
:10138000F1F290FBF1F5A5F1800501FB12041B3C85
:1013900002D56442012000E00020DFF898A08046DA
:1013A0000027FA44AAF1BE0A0EE0E0070AD032464E
:1013B000684607EB470101230AEB810100F023FB9C
:1013C0008DE8070064107F1C002CEED1194F7F447C
:1013D000AE3F19E0E80715D007EB04100DF1180A2D
:1013E00090E80E008AE80E00C068F04201D198191A
:1013F00008903246012306A903A800F004FB03ABC2
:1014000083E807006D10641C002DE3D14FF0010349
:1014100032466946B8F1000F03A802D000F0DEFAA8
:1014200001E000F0F0FAC9E90001C9F808200AB0AB
:10143000BDE8F0876C8E000010B50446AFF3008065
:101440002046BDE81040FEF710BF0000004870477E
:101450004C0A00204FF0013C50F8042B51F8043B9B
:101460009A4221D1A2EB0C03934313EACC1317D178
:1014700050F8042B51F8043B9A4215D1A2EB0C030F
:10148000934313EACC130BD150F8042B51F8043BCF
:101490009A4209D1A2EB0C03934313EACC13DBD09D
:1014A0004FF00000704700BFD01A01BAB1FA81F1C5
:1014B00001F0180122FA01F0CB40C1F12001DBB2AA
:1014C000C0B2C01A2CFA01F3D11A914311EAC31128
:1014D000E6D170477047000001491820ABBEFEE717
:1014E000260002005FEA400C08BF91F0000F4FEAAF
:1014F0008C234FEAC12243EA51514FEA1C5018BFD6
:1015000000F5F0404FEA300018BF41F000415FEABB
:101510006C5C00F02980BCF1FF3F08BF40F08040C8
:101520007047130C06BF12044FF0100C4FF0000C64
:10153000130E04BF12020CF1080C130F04BF1201AA
:101540000CF1040C930F04BF92000CF1020CD30FAA
:1015500004BF52000CF1010C11464FF00002A0F143
:101560001F00A0EB0C00704711F0004F08BF704740
:1015700031F000413FF4D5AF0B0C06BF09044FF02A
:10158000100C4FF0000C0B0E04BF09020CF1080CFC
:101590000B0F04BF09010CF1040C8B0F04BF890071
:1015A0000CF1020CCB0F04BF49000CF1010CCCF183
:1015B0002003A0EB0C0022FA03F302FA0CF241EA3A
:1015C000030100F10100704720F07F4C80EA030026
:1015D00023F07F47ACEB070303F57C5300F000409A
:1015E00003F1FF032DE980494FEA154B09B44FEA97
:1015F000144325EA0B4E24EA03480FF2042606EBB7
:10160000132749083E785FEA320203FB0667C7F5F5
:10161000000707FB06F64FEA54374FEAD64606F1B5
:10162000020607FB066CCCF1005C4FEA1C472CEA73
:10163000074C07FB06F40CFB06F504EB15464FEAD6
:10164000961634BF00204FF000404FEAD13706FB1A
:1016500007FC4FEA1C4C0CFB0BF7D21B03FB0CF7EF
:1016600061EB07010CFB0EF7B0EB074072EB174282
:101670000CFB08F734BFA2EB0742B2EB074261EB69
:1016800017414FEA0C444FEA910706FB07FC4FEA6B
:101690001C4C0CFB0BF7B0EBC74072EB573203FB53
:1016A0000CF734BFA2EBC742B2EBC74261EB573134
:1016B0000CFB0EF7B0EBC70072EB57720CFB08F790
:1016C00034BFA2EBC702B2EBC70261EB5771039FB5
:1016D0004FEA816141EA921104EBCC044FEAD13721
:1016E0004FEA826206FB07FC42EA90124FEA8060F2
:1016F0004FEA1C4C0CFB0BF7D21B03FB0CF761EB06
:1017000007010CFB0EF7B0EB074072EB17420CFB26
:1017100008F734BFA2EB0742B2EB074261EB174177
:101720004FEA8C554FEA910704EB9C2406FB07FC1B
:101730004FEA1C4C0CFB0BF7B0EBC74072EB573277
:1017400003FB0CF734BFA2EBC742B2EBC74261EB1D
:1017500057310CFB0EF7B0EBC70072EB57720CFB66
:1017600008F734BFA2EBC702B2EBC70261EB5771B7
:1017700015EB4C254FEA816141EA92114FEA8262F2
:101780004FEAD13742EA901206FB07FC44F100040D
:101790004FEA80604FEA1C4C0CFB0BF7D21B03FB9B
:1017A0000CF761EB07010CFB0EF7B0EB074072EB97
:1017B00017420CFB08F734BFA2EB0742B2EB07421B
:1017C00061EB174115EB1C154FEA813141EA92415B
:1017D0004FEA823242EA90424FEA80304FEA0C767A
:1017E00044F1000448EA03434EEA0B484FF0000E70
:1017F000B2EB080C71EB030724BF624639464EEB8F
:101800000E0E4FF0000B0018524149414BEB0B0BF1
:10181000B2EB080C71EB03077BF1000B24BF6246AF
:1018200039464EEB0E0E4FF0000B00185241494165
:101830004BEB0B0BB2EB080C71EB03077BF1000BCE
:1018400024BF624639464EEB0E0E51EA020718BF1E
:1018500046F0010616EB0E7655F1000254F1000138
:1018600003D5BDE88901BDE80088BDE88901BDE870
:101870000048B619524141EB0101A3F10103704741
:1018800080807F7E7D7C7B7A7978777676757473BD
:10189000727171706F6E6E6D6C6C6B6A6A6968687C
:1018A000676666656464636362616160605F5F5E12
:1018B0005E5D5D5C5C5B5B5A5A5959585857575688
:1018C00056555555545453535252525151505050ED
:1018D0004F4F4F4E4E4D4D4D4C4C4C4B4B4B4A4A3F
:1018E0004A49494948484847474747464646454583
:1018F00045444444444343434342424242414141BC
:10190000002B9C4630D477002BD01CB54FEA37070C
:1019100003B44FF010004FF01001BAF1000F06D0E1
:10192000BCF1000FDCBF40F0080040F008014FF0B0
:1019300000000FBCBDE810400BF1010BBBF1010F23
:1019400008BF5FEA170722BF12F1010211F101017E
:101950004FF0004143F1000300F0004043EA000073
:101960007047F9D35708D0E746EA064613F1400F0F
:101970004FEA16461FDD13F1200FDFBF16430A465C
:10198000002120335B42BED0C3F1200746EA064661
:1019900002FA07F74FEA164646EA0706C3F12007A0
:1019A00022FA03F201FA07F721FA03F14FF00003DC
:1019B00042EA0702A7E746EA020646EA06464FEA77
:1019C000164646EA0106BCBF46EA0646360C4FF00C
:1019D00000034FF000024FF0000194E72DE9804C26
:1019E0009A46934670B491E8380007C831EA400C33
:1019F00048BF34EA430C03D5FFF7E6FDFFF780FF4D
:101A0000F0BCBDE8008C2DE9804C9A46934670B43A
:101A100091E8380007C810F0804F08BF13F0804FDE
:101A200003D100F005F8FFF76BFFF0BCBDE8008CB8
:101A300020F07F4780EA030023F07F4C07EB0C0384
:101A4000A3F57C5300F00040A3F1FE0392F0000FD9
:101A500000F0B38095F0000F00F077802DE9014988
:101A60004FEA11404FEA144621EA004800FB06FC09
:101A700024EA064708FB06F607FB08F800FB07F711
:101A800018EB06484CEB164C4FEA124B18EB074884
:101A90004FEA15464CEB174022EA0B4E0BFB06FCB7
:101AA00025EA06470EFB06F607FB0EFE0BFB07F7C3
:101AB0001EEB064E4CEB164C4FF000061EEB074E8D
:101AC0004CEB174B18EB0B0840F1000018EB0E0B1A
:101AD00058EB000840F100008F1A4FF000013CBFA6
:101AE000C943661B14BFB5EB040C00213CBFC943BE
:101AF000F61B4FEA17444EEA8E0E27EA04454FEADA
:101B00001C4704FB07622CEA074C05FB07F70CFB9C
:101B100005F604FB0CFC16EB074642EB174216EBEE
:101B20000C4642EB1C421BEB060658EB02024141FD
:101B300046EA9E0601D5BDE80189B619524141EB3E
:101B40000101A3F10103BDE801894FEA14454FEA01
:101B5000114724EA054621EA074C05FB07F406FB7A
:101B600007F70CFB06F105FB0CFC11EB074144EBFE
:101B700017444FEA124711EB0C4144EB1C4422EA94
:101B8000074C05FB07F206FB07F70CFB06F605FB07
:101B90000CFC16EB074642EB174216EB0C4642EBE9
:101BA0001C456A1854F1000148BF7047B6195241EC
:101BB00041EB0101A3F10103704795F0000F37D00D
:101BC0004FEA11424FEA144721EA024624EA074C41
:101BD00002FB07F106FB07F70CFB06F402FB0CFC0B
:101BE00014EB074441EB17414FEA154714EB0C4443
:101BF00041EB1C4125EA074C02FB07F506FB07F702
:101C00000CFB06F602FB0CFC16EB074645EB1745F2
:101C100016EB0C4645EB1C42121951F1000148BF6E
:101C20007047B619524141EB0101A3F1010370471E
:101C30004FEA14454FEA114724EA054621EA074CCA
:101C400005FB07F106FB07F70CFB06F24FF0000659
:101C500005FB0CFC12EB074241EB174112EB0C4267
:101C600051EB1C4148BF7047921841EB0101A3F1B1
:101C70000103704700BFFEE710B5044600F048FAC4
:101C80002168401A6168884201D3012010BD0020FC
:101C9000FCE7704772B600BFFEE710B5044600F0DF
:101CA00037FA206010BD0146002291F82100022879
:101CB00008D00420886300BF002081F8200000BF06
:101CC000012070470868006820F00E000B6818605B
:101CD0000868006820F001000B68186091F8403037
:101CE00001209840CB6B5860012081F8210000BF93
:101CF000002081F8200000BF1046E2E770B50446DE
:101D0000002594F82100022803D00420A0630125B7
:101D100048E02068006820F00E0021680860206814
:101D2000006820F00100216808601F49206888428F
:101D300001D1012026E01C4914312068884201D1DC
:101D400010201FE0184928312068884201D18015F1
:101D500018E015493C312068884201D1801411E017
:101D6000114950312068884202D14FF4803009E097
:101D70000D4964312068884202D14FF4801001E09F
:101D80004FF08070084908394860012084F821002C
:101D900000BF002084F8200000BF606B10B1204617
:101DA000616B8847284670BD0800024070B5044644
:101DB00000F0AEF906462546681C10B104480078CC
:101DC000054400BF00F0A4F9801BA842FAD370BDFF
:101DD000080000202DE9F8470346002294466EE1F2
:101DE0004FF0010808FA02F4D1F8008008EA040074
:101DF000A0427DD1DFF8DCA2D1F80480A8EB0A096B
:101E0000D0453AD014DCB8F1030F50D009DCB8F15A
:101E1000000F31D0B8F1010F1CD0B8F1020F49D139
:101E200020E0B8F1110F18D0B8F1120F42D11EE026
:101E3000B9F5881F25D006DCB9F5803F20D0B9F56B
:101E4000801F37D11AE0B9F5001F18D0B9F5041F6B
:101E500030D117E0D1F80CC02DE0D1F80C8008F19A
:101E6000040C28E0D1F80C8008F1080C23E0D1F82C
:101E70000C8008F10C0C1EE000BF00BF00BF00BFCB
:101E800000BF00BFD1F80880B8F1000F02D14FF0B9
:101E9000040C0BE0D1F80880B8F1010F03D14FF02A
:101EA000080C1C6102E04FF0080C5C6103E04FF08D
:101EB000000C00E000BF00BFFF2801D8984601E0F9
:101EC00003F104084646FF2802D84FEA820803E0DF
:101ED000A2F108084FEA88084746D6F800804FF07C
:101EE0000F0909FA07F928EA09080CFA07F900E0CE
:101EF00088E048EA0908C6F80080D1F8048008F0B4
:101F00008058B8F1805F7DD100BFDFF8CC81D8F870
:101F1000188048F00108DFF8C091C9F81880C84659
:101F2000D8F8188008F00108CDF8008000BF00BF85
:101F30004FEAB9384FEA920958F829504FEA8278A7
:101F40004FEA18794FF00F0808FA09F825EA080552
:101F5000DFF88881434502D14FF0000816E0DFF832
:101F60008081434502D14FF001080FE0DFF8748112
:101F7000434502D14FF0020808E0DFF86C81434589
:101F800002D14FF0030801E04FF004084FEA8279D4
:101F90004FEA197908FA09F848EA0505DFF84C8193
:101FA0004FEA920948F82950D1F8048008F48018C3
:101FB000B8F5801F0AD1DFF83881D8F8008048EAE8
:101FC0000008DFF82C91C9F8008009E0DFF82081D3
:101FD000D8F8008028EA0008DFF81491C9F80080DA
:101FE000D1F8048008F40018B8F5001F10D1DFF80C
:101FF000008108F10408D8F8008048EA0008DFF8FA
:10200000F09000E05AE009F10409C9F800800DE001
:10201000DFF8DC8008F10408D8F8008028EA00081E
:10202000DFF8CC9009F10409C9F80080D1F80480E8
:1020300008F40038B8F5003F0ED1DFF8B480A8F1FD
:102040000408D8F8008048EA0008DFF8A490A9F155
:102050000409C9F800800DE0DFF89480A8F10408B5
:10206000D8F8008028EA0008DFF88490A9F1040974
:10207000C9F80080D1F8048008F48038B8F5803FB2
:102080000ED1DFF86C80A8F10808D8F8008048EA83
:102090000008DFF85C90A9F10809C9F800800DE09C
:1020A000DFF84C80A8F10808D8F8008028EA00087A
:1020B000DFF83C90A9F10809C9F80080521CD1F85A
:1020C000008028FA02F8B8F1000F7FF489AEBDE86D
:1020D000F8870000000011100010024000080140C5
:1020E000000C0140001001400014014008000140B4
:1020F00008040140024693680B400BB1012000E048
:10210000002070470AB1016101E00B0403617047D0
:102110000148006870470000000000200348006884
:10212000034909780844014908607047000000200D
:102130000800002010B50848006840F0100006496B
:102140000860032000F0A8F80F2000F007F800F066
:102150002BF8002010BD00000020024070B504469E
:102160000E4800784FF47A71B1FBF0F00C49096821
:10217000B1FBF0F5284600F0C1FD08B1012070BDAB
:10218000102C07D200222146501E00F047F80548C7
:10219000046001E00120F2E70020F0E708000020E1
:1021A0000C0000200400002008B500BF1148806921
:1021B00040F001000F4988610846806900F0010085
:1021C000009000BF00BF00BF0846C06940F08050CB
:1021D000C8610846C06900F08050009000BF00BF91
:1021E00000BF0549486820F0E06040F0007048609A
:1021F00000BF08BD00100240000001400146084633
:10220000002809DB00F01F0301229A4043099B00CC
:1022100003F1E023C3F8002100BF70472DE9F05F10
:1022200080460D461646002704F038FA0746394620
:102230002A46334601F00700C0F1070ABAF1040F3D
:1022400002D94FF0040A01E0C0F1070AD14600F1BB
:10225000040ABAF1070F02D24FF0000A01E0A0F120
:10226000030AD4464FF0010A0AFA09FAAAF1010A50
:102270000AEA020A0AFA0CFA4FF0010B0BFA0CFBFD
:10228000ABF1010B0BEA030B4AEA0B042146404673
:1022900004F00CFABDE8F09F00BF00F00702064B07
:1022A00019684FF6FF031940044B0B4343EA022120
:1022B000014B196000BF70470CED00E00000FA050B
:1022C00070B504460D460CB9012070BD5A4800682F
:1022D00000F00700A8420ED25748006820F007001F
:1022E0002843554908600846006800F00700A842E6
:1022F00001D00120E9E7207800F0020002281DD17A
:10230000207800F00400042805D14C48406840F4CF
:10231000E0604A494860207800F00800082805D1AC
:102320004648406840F4605044494860434840682B
:1023300020F0F000A168084340494860207800F090
:10234000010078B36068012806D13C48006800F4B9
:10235000003090B90120B8E76068022806D13748FC
:10236000006800F0007040B90120AEE73348006813
:1023700000F0020008B90120A7E73048406820F0CB
:102380000300616808432D494860FFF7C1FE064617
:1023900009E0FFF7BDFE801B41F28831884202D977
:1023A000032092E707E02548406800F00C006168D0
:1023B000B0EB810FEDD12048006800F00700A84283
:1023C0000ED91D48006820F0070028431A4908600C
:1023D0000846006800F00700A84201D0012074E719
:1023E000207800F00400042807D11448406820F445
:1023F000E060E168084311494860207800F0080077
:10240000082808D10D48406820F46050216940EA4E
:10241000C1000A49486000F03FF808494968C1F323
:102420000311074A515CC840064908600648006825
:10243000FFF794FE002048E7002002400010024011
:10244000726900080C0000200400002001480068A8
:10245000704700000C00002000B5FFF7F7FF0449AB
:102460004968C1F30221034A515CC84000BD000025
:10247000001002408269000800B5FFF7E7FF044939
:102480004968C1F3C221034A515CC84000BD000045
:10249000001002408269000870B50021002200246B
:1024A00000230020134D696801F00C05F5B1042DDF
:1024B00002D0082D19D101E00F4819E00F4DC1F3EA
:1024C0008346AB5D01F4803555B10A4D6D68C5F3A7
:1024D00040450B4E725D084D5D43B5FBF2F402E0E2
:1024E000084D03FB05F4204602E000BF024800BF90
:1024F00000BF70BD0010024000127A006069000841
:102500007069000800093D00F8B504460CB90120C7
:10251000F8BD207800F00100002878D0F848406825
:1025200000F00C0004280CD0F548406800F00C00C6
:10253000082811D1F248406800F48030B0F5803F9F
:102540000AD1EF48006800F4003000285FD06068CE
:1025500000285CD10120DBE700BF6068B0F5803F58
:1025600006D1E748006840F48030E549086028E07B
:10257000606858B9E248006820F48030E04908609B
:102580000846006820F4802008601AE06068B0F512
:10259000A02F0BD1DA48006840F48020D8490860A9
:1025A0000846006840F4803008600AE0D4480068BB
:1025B00020F48030D24908600846006820F480206A
:1025C000086000BF606888B1FFF7A2FD054606E01D
:1025D000FFF79EFD401B642801D9032098E7C848F7
:1025E000006800F400300028F2D010E0FFF790FD02
:1025F000054606E0FFF78CFD401B642801D9032047
:1026000086E7BF48006800F400300028F2D1207847
:1026100000F00200022857D1B948406800F00C00D1
:1026200050B1B748406800F00C00082818D1B448F1
:10263000406800F4803098B9B148006800F00200AA
:1026400020B12069012801D0012061E7AC48006871
:1026500020F0F800616940EAC100A949086033E050
:102660002069E8B10120A7490860FFF751FD054640
:1026700006E0FFF74DFD401B022801D9032047E784
:102680009F48006800F002000028F2D09C480068D3
:1026900020F0F800616940EAC1009949086013E040
:1026A000002098490860FFF733FD054606E0FFF774
:1026B0002FFD401B022801D9032029E7904800681C
:1026C00000F002000028F2D1207800F0080008286D
:1026D0002DD1A069B8B101208B490860FFF718FD22
:1026E000054606E0FFF714FD401B022801D9032030
:1026F0000EE78348406A00F002000028F2D0012073
:1027000002F0C6FF13E000207F490860FFF700FDDC
:10271000054606E0FFF7FCFC401B022801D9032018
:10272000F6E67748406A00F002000028F2D12078EF
:1027300000F00400042873D100277148C06900F03C
:10274000805070B900BF6E48C06940F080506C493D
:10275000C8610846C06900F08050009000BF00BF0B
:1027600001276A48006800F48070B0B967480068C3
:1027700040F4807065490860FFF7CAFC054606E032
:10278000FFF7C6FC401B642801D90320C0E65F4860
:10279000006800F480700028F2D000BFE0680128D3
:1027A00006D15748006A40F001005549086227E009
:1027B000E06858B95248006A20F0010050490862A8
:1027C0000846006A20F00400086219E0E068052865
:1027D0000BD14B48006A40F00400494908620846A2
:1027E000006A40F0010008620AE04548006A20F0F3
:1027F0000100434908620846006A20F004000862AC
:1028000000BFE068A0B1FFF783FC054609E0FFF7D1
:102810007FFC401B41F28831884202D9032077E6D1
:1028200022E03748006A00F002000028EFD012E0F2
:10283000FFF76EFC054608E0FFF76AFC401B41F21B
:102840008831884201D9032062E62D48006A00F0F1
:1028500002000028F0D1012F05D12948C06920F0DD
:1028600080502749C86100BFE069C8B32448406868
:1028700000F00C00082860D0E069022848D1002050
:1028800020490866FFF744FC054606E0FFF740FCD8
:10289000401B022801D903203AE61948006800F0DD
:1028A00000700028F2D1206AB0F5803F07D11448AB
:1028B000406820F40030A168084311494860D4E919
:1028C000080108430E49496821F4741108430C4972
:1028D000486001200B490866FFF71AFC054607E02F
:1028E0003DE0FFF715FC401B022801D903200FE64D
:1028F0000348006800F000700028F2D02FE00000CC
:102900000010024000004242800442420070004039
:10291000002014490866FFF7FBFB054606E0FFF7B9
:10292000F7FB401B022801D90320F1E50E4800689F
:1029300000F000700028F2D111E0E069012800D118
:10294000E6E50948466806F48031206A814204D1F0
:1029500006F47011606A814201D00120D8E50020A0
:10296000D6E50000000042420010024010B50446C7
:102970000CB9012010BD606A38B96068B0F5827F7B
:1029800000D105E00021E16102E0002121616161E7
:102990000021A16294F8510028B9002084F8500069
:1029A000204600F043F8022084F8510020680068B7
:1029B00020F0400021680860A08800F4827021891E
:1029C00001F404410843A18901F400610843217C1A
:1029D00001F002010843217D01F001010843218B30
:1029E00001F400710843217F01F0380108432021E0
:1029F000095D01F080010843218D01F40051084375
:102A0000216808600421A06901EA1040216848603B
:102A10002068C06920F400602168C86100206065FA
:102A2000012084F851000020A4E7000010B586B012
:102A30000446002002900390049005901A492068F3
:102A400088422FD100BF1948C06940F4804017491F
:102A5000C8610846C06900F48040019000BF00BF13
:102A600000BF0846806940F0080088610846806918
:102A700000F00800019000BF00BF4FF4204002901A
:102A8000022003900320059002A90948FFF7A2F94C
:102A90004FF48040029000200390049002A9044863
:102AA000FFF798F906B010BD003800400010024052
:102AB000000C01402DE9FE4F04460F4690461D468E
:102AC0000C9E01200190FFF723FB814694F851B042
:102AD00060680290AA46BBF1010F0BD00298B0F5D6
:102AE000827F04D1A06810B9BBF1040F02D002208C
:102AF000BDE8FE8F1FB1B8F1000F00D00DB9012065
:102B0000F6E700BF94F85000012801D10220EFE75A
:102B1000012084F8500000BF94F85100042802D02E
:102B2000052084F8510000206065C4F83880E587EE
:102B3000A5872763E586A586206460642068006811
:102B400000F04000402805D02068006840F04000B8
:102B500021680860E068B0F5006F52D1606810B17C
:102B6000BAF1010F09D1206B00882168C860206B81
:102B7000801C2063E08E401EE0863BE02068806879
:102B800000F00200022810D1E08E70B101980128F7
:102B90000BD1206B00882168C860206B801C2063EB
:102BA000E08E401EE086002001902068806800F0E2
:102BB000010068B1E08F58B12068C068A16B08803F
:102BC000A06B801CA063E08F401EE0870120019075
:102BD000FFF79EFAA0EB0900B0420BD3701C48B17E
:102BE000012084F8510000BF002084F8500000BF8D
:102BF00003207DE7E08E0028C0D1E08F0028BDD102
:102C000052E0606810B1BAF1010F09D1206B007871
:102C100021680873206B401C2063E08E401EE08614
:102C20003CE02068806800F00200022810D1E08EAD
:102C300070B1019801280BD1206B007821680873CE
:102C4000206B401C2063E08E401EE0860020019037
:102C50002068806800F0010068B1E08F58B12068FA
:102C6000C068A16B0870A06B401CA063E08F401E81
:102C7000E08701200190FFF74BFAA0EB0900B0427A
:102C800001D3701C00B94EB9012084F8510000BF77
:102C9000002084F8500000BF032029E7E08E0028C0
:102CA000BFD1E08F0028BCD14A463146204602F011
:102CB00021FD40B12020606500BF002084F8500055
:102CC00000BF012014E7A06850B900BF00200090A9
:102CD0002068C068009020688068009000BF00BF36
:102CE000012084F8510000BF002084F8500000BF8C
:102CF000606D08B10120FBE60020F9E670B50446DE
:102D00002546681EB0F1807F01D301200FE0681EC8
:102D10004FF0E02148610F214FF0FF3003F0C6FC77
:102D200000204FF0E021886107200861002070BD7D
:102D30007047704730B502460B4600BF92F83C0022
:102D4000012801D1022030BD012082F83C0000BFE3
:102D5000022082F83D00106844681068816824F001
:102D600070041868044310684460104D1068A8424D
:102D70000BD01068B0F1804F07D00D4D1068A842FD
:102D800003D00C4D1068A84205D121F0800158688D
:102D9000014310688160012082F83D0000BF0020DF
:102DA00082F83C0000BF00BFCDE70000002C0140CE
:102DB000000400400008004010B504460CB9012092
:102DC00010BD94F83D0028B9002084F83C0020464E
:102DD00000F026F8022084F83D00211D206802F052
:102DE00077FE012084F8460000BF84F83E000121F0
:102DF0003F200155402001554120015500BF00BF33
:102E0000012084F84200432001554420015545200B
:102E1000015500BF012084F83D000020D0E70000EC
:102E200038B504462068B0F1804F16D100BF26485F
:102E3000C06940F001002449C8610846C06900F03B
:102E40000100009000BF00BF002211461C20FFF7C8
:102E5000E5F91C20FFF7D2F934E01C4920688842CC
:102E600016D100BF1848C06940F002001649C86179
:102E70000846C06900F00200009000BF00BF0022B9
:102E800011461D20FFF7CAF91D20FFF7B7F919E019
:102E90000F492068884215D100BF0B48C06940F037
:102EA00004000949C8610846C06900F004000090A8
:102EB00000BF00BF002211461E20FFF7AFF91E2001
:102EC000FFF79CF938BD00000010024000040040EC
:102ED00000080040014691F83D00012801D0012082
:102EE0007047022081F83D000868C06840F001008A
:102EF0000B68D860124B086898420BD00868B0F194
:102F0000804F07D00F4B0868984203D00E4B0868DB
:102F100098420CD10868806800F00702062A0CD09D
:102F20000868006840F001000B68186005E0086858
:102F3000006840F001000B6818600020D0E7000036
:102F4000002C014000040040000800402DE9F04141
:102F500004460D46002700BF94F83C00012802D12A
:102F60000220BDE8F081012084F83C0000BF02206F
:102F700084F83D002068866826F0770626F47F46B0
:102F8000206886602868502833D00CDC202850D078
:102F900004DC00284BD0102851D149E0302849D01A
:102FA00040284CD139E060282DD0702807D0B0F5EA
:102FB000805F03D0B0F5005F41D10DE041E0D5E97D
:102FC00002136A68206802F0C5FD2068866846F032
:102FD00077062068866034E0D5E902136A682068C5
:102FE00002F0B8FD2068806840F480402168886065
:102FF00027E0EA686968206802F0C0FD5021206877
:1030000002F0B3FD1DE0EA686968206802F0C9FDBE
:103010006021206802F0A9FD13E0EA686968206871
:1030200002F0ACFD4021206802F09FFD09E000BFE6
:1030300000BF00BF2968206802F097FD01E001276A
:1030400000BF00BF012084F83D0000BF002084F8CD
:103050003C0000BF384684E7704770B504462068DE
:10306000C5682068066906F00200022819D105F03B
:103070000200022815D1401F216808610120207735
:103080002068806900F0030018B12046FFF7E4FFD4
:1030900005E0204600F097F8204600F095F8002063
:1030A000207706F00400042819D105F00400042854
:1030B00015D1C0432168086102202077206880690B
:1030C00000F4407018B12046FFF7C6FF05E0204627
:1030D00000F079F8204600F077F80020207706F01D
:1030E0000800082819D105F00800082815D1C043A8
:1030F00021680861042020772068C06900F003007F
:1031000018B12046FFF7A8FF05E0204600F05BF865
:10311000204600F059F80020207706F01000102813
:1031200019D105F01000102815D1C043216808619D
:10313000082020772068C06900F4407018B120464C
:10314000FFF78AFF05E0204600F03DF8204600F03A
:103150003BF80020207706F0010048B105F001009F
:1031600030B16FF0010021680861204600F02EF8B0
:1031700006F08000802809D105F08000802805D164
:10318000C043216808612046FFF7D2FD06F04000E9
:10319000402809D105F04000402805D1C0432168EE
:1031A0000861204600F026F806F02000202809D10A
:1031B00005F02000202805D1C04321680861204681
:1031C000FFF7B7FD70BD70477047000010B50446AB
:1031D00006492068884208D102F080FF03F04AF8CF
:1031E00003480068401C0249086010BD0008004008
:1031F0005800002070477047704700002DE9F84FD5
:103200000446206805682068C668206847694FF052
:103210000009CA4605F00F09B9F1000F0AD105F0FF
:10322000200038B106F0200020B1204602F01DFD3C
:10323000BDE8F88FB9F1000F7BD007F0010018B995
:1032400006F49070002874D005F0010030B106F447
:10325000807018B1606C40F00100606405F00400FB
:1032600030B107F0010018B1606C40F002006064FA
:1032700005F0020030B107F0010018B1606C40F0B9
:103280000400606405F0080048B106F0200010B9A1
:1032900007F0010018B1606C40F008006064606CD9
:1032A000002845D005F0200028B106F0200010B11C
:1032B000204602F0DAFC20684069C0F3801A606C96
:1032C00000F0080010B9BAF1000F2CD0204602F02F
:1032D00086FC2068406900F0400000B300BF00BFDA
:1032E0002168143151E8001F21F040002168143199
:1032F00041E80002002AF3D100BFE06B50B17748EB
:10330000E16B4863E06BFEF7F9FC88B1E06B416B61
:1033100088470DE02046FFF76FFF09E009E02046EF
:10332000FFF76AFF04E02046FFF766FF00206064B5
:103330007EE7206B012877D105F01000002873D0BC
:1033400006F010000028FAD000BF0020009020688E
:103350000068009020684068009000BF00BF2068AF
:10336000406900F0400000285FD0E06B00684068D2
:103370001FFA80F8B8F1000F55D0A08D404552DDFE
:10338000A4F82E80E06B8069202843D000BF00BFE6
:1033900021680C3151E8001F21F4807021680C3144
:1033A00041E80002002AF3D100BF00BF00BF21683E
:1033B000143151E8001F21F001002168143141E867
:1033C0000002002AF3D100BF00BF00BF2168143102
:1033D00051E8001F21F040002168143141E800024B
:1033E000002AF3D100BF202084F84200002020638F
:1033F00000BF00BF21680C3151E8001F21F0100010
:1034000021680C3141E80002002AF3D100BFE06BD3
:10341000FEF749FC02206063A08DE28D801A81B224
:103420002046FFF7E8FE03E742E0A08DE18D401A59
:103430001FFA80F8E08DD0B3B8F1000F37D000BF8D
:1034400000BF21680C3151E8001F21F49070216801
:103450000C3141E80002002AF3D100BF00BF00BFD9
:103460002168143151E8001F21F001002168143156
:1034700041E80002002AF3D100BF202084F8420076
:103480000020206300BF00BF21680C3151E8001FFD
:1034900021F0100021680C3141E80002002AF3D12C
:1034A00000BF0220606341462046FFF7A4FEBFE64E
:1034B00005F0800030B106F0800018B1204602F01F
:1034C000F1FCB5E605F0400030B106F0400018B15F
:1034D000204602F0BAFBABE600BFA9E6CB5B0008D2
:1034E00010B504460CB9012010BDA06900B100E080
:1034F00000BF94F8410028B9002084F8400020461D
:1035000000F02AF8242084F841002068C06820F4E4
:1035100000502168C860204602F026FC206800693F
:1035200020F49040216808612068406920F02A005A
:10353000216848612068C06840F400502168C86074
:1035400000206064202084F8410084F842000020BC
:10355000606300BFC8E7000010B586B004460020D5
:1035600002900390049005903C492068884237D12E
:1035700000BF3B48806940F4804039498861084673
:10358000806900F48040019000BF00BF00BF084682
:10359000806940F0040088610846806900F00400FA
:1035A000019000BF00BF4815029002200390032045
:1035B000059002A92B48FEF70DFC4FF480600290A5
:1035C00000200390049002A92648FEF703FC002285
:1035D00011462520FEF722FE2520FEF70FFE3AE0D9
:1035E00021492068884236D100BF1D48C06940F497
:1035F00080201B49C8610846C06900F48020019002
:1036000000BF00BF00BF0846806940F00800886125
:103610000846806900F00800019000BF00BF08154F
:103620000290022003900320059002A90F48FEF7A4
:10363000D1FB4FF40060029000200390049002A997
:103640000A48FEF7C7FB002211462720FEF7E6FDD9
:103650002720FEF7D3FD06B010BD00000038014062
:10366000001002400008014000480040000C0140EA
:1036700070B504460D46164694F8420020280BD13A
:1036800005B10EB9012070BD0020206332462946E5
:10369000204602F0E7FBF6E70220F4E710B5044607
:1036A0001949206888420DD118480088401C1749E4
:1036B0000880012216491748FFF7DAFF16490870FB
:1036C00002F084FD1549206888420DD11448008815
:1036D000401C13490880012212491348FFF7C8FF14
:1036E0001249087002F0A6FC1048007810490978C9
:1036F00008440E490978084420B10E480078401C5F
:103700000C49087010BD0000004800407000002007
:103710005F000020F8020020720000200038014005
:103720006E0000206B000020B0020020730000201B
:1037300074000020750000202DE9F84F04460E4665
:10374000174699464FF0000A94F84100202850D1BE
:1037500006B117B90120BDE8F88F00206064212070
:1037600084F84100FEF7D4FC8246A784E784A06871
:10377000B0F5805F04D1206910B90025B04602E0A1
:1037800035464FF000081EE05346002280212046B7
:10379000CDF8009002F0C8FB20B1202084F8410051
:1037A0000320D8E745B9B8F80000C0F30800216845
:1037B000486008F1020803E02878216848606D1C21
:1037C000E08C401EE084E08C0028DDD153460022CE
:1037D00040212046CDF8009002F0A6FB20B1202029
:1037E00084F841000320B6E7202084F8410000203F
:1037F000B1E70220AFE7704700BFFEE710B5012137
:10380000202002F09DF80121222002F099F84DF6C7
:10381000D801232002F094F85548008840F4404134
:10382000242002F08DF853480188252002F088F802
:1038300049F65E61262002F083F80121272002F07C
:103840007FF84DF6D801282002F07AF84A4800881F
:1038500040F44041292002F073F8484801882A20AA
:1038600002F06EF849F65E612B2002F069F8012142
:103870002C2002F065F84DF6D8012D2002F060F8FA
:103880003F48008840F440412E2002F059F83D485E
:1038900001882F2002F054F849F65E61302002F0D2
:1038A0004FF80121312002F04BF84DF6D8013220BB
:1038B00002F046F83448008840F44041332002F0DA
:1038C0003FF832480188342002F03AF849F65E6148
:1038D000352002F035F80121362002F031F84DF69E
:1038E000D801372002F02CF84CF6FF71382002F096
:1038F00027F820480188392002F022F849F65E6155
:103900003A2002F01DF800213B2002F019F80021B6
:103910003C2002F015F800213E2002F011F84FF48F
:103920000071002002F00CF847F68A41012002F0F5
:1039300007F846F2F061022002F002F84FF46161EC
:10394000032001F0FDFF47F27001042001F0F8FFB1
:103950000421052001F0F4FF4FF440710E2001F026
:10396000EFFF4FF490610B2001F0EAFF10BD000063
:10397000CC000020D4000020CE000020D600002083
:10398000D0000020D8000020D2000020DA00002063
:103990000120044908700448486000200872012092
:1039A0004872704774010020B00200200FB4F8B5CF
:1039B000054621480078A84202DC1F48406810B93B
:1039C000F8BC5DF814FB00244FF480711B48FCF731
:1039D00059FE1948407A60B1042D0ADC184A52F8A1
:1039E0002530C4F58071154A101916A2FCF794FC15
:1039F00004441148007A58B1FEF78AFB0646C4F524
:103A000080710E4A101933460FA2FCF785FC04445E
:103A100008A80090C4F58071084A1019009B079A05
:103A2000FCF74AFC0020009003494868034902F073
:103A300069FA00BFC4E70000740100204C090020AF
:103A400060010020257320005B256C755D2000005F
:103A500000B585B00020019002900390049000BF53
:103A60002A48806940F00400284988610846806936
:103A700000F00400009000BF00BF00BF084680694E
:103A800040F0080088610846806900F00800009056
:103A900000BF00BF002240F24F111D48FEF732FB6D
:103AA00000224FF498511B48FEF72CFB40F24F10B8
:103AB000019001200290002003900220049001A9AF
:103AC0001348FEF787F94FF49850019001200290B7
:103AD000002003900220049001A90E48FEF77AF915
:103AE0004FF41040019000200290039001A9084873
:103AF000FEF770F9F820019000200290039001A9D0
:103B00000448FEF767F905B000BD00000010024050
:103B100000080140000C014010B50F480F49086033
:103B20004FF48270486000210C488160C16002211E
:103B3000016101214161490281611821C161802136
:103B400001620021416281620A21C162FEF70EFF1B
:103B500008B1FEF79FF810BD00380040800100203A
:103B600000B587B000200390049005900690019066
:103B700002904FF08040144908603F2048600021C7
:103B80001148816040F2E731C1600021016181612B
:103B9000FFF712F908B1FEF77DF84FF4805003905B
:103BA00003A90948FFF7D2F908B1FEF773F800201E
:103BB0000190029001A90448FFF7BCF808B1FEF794
:103BC00069F807B000BD0000D801002000B587B03B
:103BD00000200390049005900690019002901448F4
:103BE00014490860002048600021124881604FF6A7
:103BF000FF71C160002101618161FFF7DDF808B14B
:103C0000FEF748F84FF48050039003A90948FFF7E6
:103C10009DF908B1FEF73EF800200190029001A93D
:103C20000448FFF787F808B1FEF734F807B000BD85
:103C3000000400402002002000B587B0002003905F
:103C40000490059006900190029014481449086071
:103C50003F20486000211248816040F2E731C16096
:103C6000002101618161FFF7A7F808B1FEF712F8A2
:103C70004FF48050039003A90948FFF767F908B192
:103C8000FEF708F800200190029001A90448FFF710
:103C900051F808B1FDF7FEFF07B000BD0008004075
:103CA0006802002010B50A480A4908600A484860BE
:103CB000002108488160C16001610C21416100213F
:103CC0008161C161FFF70CFC08B1FDF7E3FF10BD96
:103CD00000380140B002002080841E0010B50B485F
:103CE0000B4908604FF41650486000210848816075
:103CF000C16001610C21416100218161C161FFF757
:103D0000EFFB08B1FDF7C6FF10BD00000048004002
:103D1000F802002000BFFEE700200149087070474C
:103D200000010020012001490870704700010020B7
:103D30000148006870470000F800002070B5354861
:103D4000007800B970BD3448006834490968441AE5
:103D500044B90021242001F0F3FD02F0A5FBFFF798
:103D6000DBFFEFE7002C0DDD2D480088844202DDEB
:103D70002B48008800E0A0B20546C5F30B0040F4D4
:103D800040460EE0604226490988884202DD244907
:103D9000098800E081B20D46C5F30B0141F450469D
:103DA00000BFB5F5805F08DB40F6FF75002C02DD33
:103DB0004CF6FF7601E04DF6FF76002D27DD012160
:103DC000222001F0BDFD4DF6D801232001F0B8FD01
:103DD0003146242001F0B4FD12480188252001F06D
:103DE000AFFD49F65E61262001F0AAFD02F05CFB02
:103DF000002C05DD0948006828440849086004E0F3
:103E000006480068401B0549086000F00DF800BF37
:103E100098E7000000010020FC000020F8000020CE
:103E200002010020D400002010B51EA10120FFF7E0
:103E3000BDFD244824A102680120FFF7B7FD2648F4
:103E400026A102680120FFF7B1FD234800681D4943
:103E50000968421A25A10120FFF7A8FD274800782C
:103E600008B127A000E028A0024629A10120FFF701
:103E70009DFD2B4802882BA10120FFF797FD1148DB
:103E8000006815490968884201D12CA000E02CA0E7
:103E900002462CA10120FFF789FD2FA10120FFF789
:103EA00085FD10BD3D3D3D20B2BDBDF8B5E7BBFA77
:103EB0003132CEBBD6C3D0C5CFA2203D3D3D0D0A89
:103EC00000000000F8000020B5B1C7B0CEBBD6C3DB
:103ED0003A2025640D0A0000FC000020C4BFB1EAAE
:103EE000CEBBD6C33A2025640D0A0000CEBBD6C394
:103EF000CEF3B2EE3A2025640D0A00000001002046
:103F0000C6F4D3C300000000BDFBD3C30000000013
:103F1000BFD8D6C6D7B4CCAC3A2025730D0A000062
:103F200002010020C3BFD6DCC6DAD7EEB4F3B2BDBF
:103F3000CAFD3A2025640D0A00000000CAC700002F
:103F4000B7F10000CAC7B7F1B5BDB4EFC4BFB1EA5D
:103F50003A2025730D0A00003D3D3D3D3D3D3D3D70
:103F60003D3D3D3D3D3D3D3D3D3D3D3D3D3D3D3D81
:103F70000D0A00000149086070470000F8000020A9
:103F800000B50246FFF7CEFE0148026000BD00000A
:103F9000FC00002000200149087070470C0100203F
:103FA00001200149087070470C0100200148006899
:103FB000704700000401002070B53548007800B952
:103FC00070BD3448006834490968441A44B9002176
:103FD000292001F0B5FC02F095FAFFF7DBFFEFE7CF
:103FE000002C0DDD2D480088844202DD2B4800881E
:103FF00000E0A0B20546C5F30B0040F440460EE0D9
:10400000604226490988884202DD2449098800E087
:1040100081B20D46C5F30B0141F4504600BFB5F522
:10402000805F08DB40F6FF75002C02DD4CF6FF7662
:1040300001E04DF6FF76002D27DD0121272001F05C
:104040007FFC4DF6D801282001F07AFC314629206A
:1040500001F076FC124801882A2001F071FC49F633
:104060005E612B2001F06CFC02F04CFA002C05DDA7
:104070000948006828440849086004E006480068C8
:10408000401B0549086000F00DF800BF98E70000EC
:104090000C01002008010020040100200E01002076
:1040A000D600002010B51EA10120FFF77FFC244898
:1040B00024A102680120FFF779FC264826A10268A6
:1040C0000120FFF773FC234800681D490968421A64
:1040D00025A10120FFF76AFC2748007808B127A036
:1040E00000E028A0024629A10120FFF75FFC2B4831
:1040F00002882BA10120FFF759FC114800681549DF
:104100000968884201D12CA000E02CA002462CA115
:104110000120FFF74BFC2FA10120FFF747FC10BD4A
:104120003D3D3D20B2BDBDF8B5E7BBFA3334CEBB53
:10413000D6C3D0C5CFA2203D3D3D0D0A00000000F2
:1041400004010020B5B1C7B0CEBBD6C33A20256468
:104150000D0A000008010020C4BFB1EACEBBD6C3DF
:104160003A2025640D0A0000CEBBD6C3CEF3B2EED2
:104170003A2025640D0A00000C010020C6F4D3C3C8
:1041800000000000BDFBD3C300000000BFD8D6C6AE
:10419000D7B4CCAC3A2025730D0A00000E010020E4
:1041A000C3BFD6DCC6DAD7EEB4F3B2BDCAFD3A203F
:1041B00025640D0A00000000CAC70000B7F1000026
:1041C000CAC7B7F1B5BDB4EFC4BFB1EA3A20257391
:1041D0000D0A00003D3D3D3D3D3D3D3D3D3D3D3DEC
:1041E0003D3D3D3D3D3D3D3D3D3D3D3D0D0A0000DC
:1041F00001490860704700000401002000B5024634
:10420000FFF7CEFE0148026000BD0000080100205B
:104210000020014908707047180100200120014961
:1042200008707047180100200148006870470000BE
:104230001001002070B53448007800B970BD3348D3
:10424000006833490968441A44B900212E2001F05E
:1042500077FB02F085F9FFF7DBFFEFE7002C0DDDC0
:104260002C480088844202DD2A48008800E0A0B281
:104270000546C5F30B0040F440460EE06042254978
:104280000988884202DD2349098800E081B20D4691
:10429000C5F30B0141F4504600BFB5F5805F08DB64
:1042A00040F6FF75002C02DD4CF6FF7601E04DF67E
:1042B000FF76002D25DD01212C2001F041FB4DF67C
:1042C000D8012D2001F03CFB31462E2001F038FBB7
:1042D000114801882F2001F033FB49F65E61302040
:1042E00001F02EFB02F03CF9002C05DD08480068C7
:1042F00028440749086004E005480068401B044959
:10430000086000BF9AE70000180100201401002097
:10431000100100201A010020D80000200149086087
:10432000704700001001002000B50246FFF776FF3D
:104330000148026000BD0000140100200020014976
:10434000087070472401002001200149087070475F
:104350002401002001480068704700001C01002073
:1043600070B53548007800B970BD344800683449EC
:104370000968441A44B90021332001F0E1FA02F03F
:104380001DF9FFF7DBFFEFE7002C0DDD2D4800885E
:10439000844202DD2B48008800E0A0B20546C5F348
:1043A0000B0040F440460EE06042264909888842EE
:1043B00002DD2449098800E081B20D46C5F30B01F6
:1043C00041F4504600BFB5F5805F08DB40F6FF754D
:1043D000002C02DD4CF6FF7601E04DF6FF76002D55
:1043E00027DD0121312001F0ABFA4DF6D801322052
:1043F00001F0A6FA3146332001F0A2FA12480188F2
:10440000342001F09DFA49F65E61352001F098FAFA
:1044100002F0D4F8002C05DD09480068284408495A
:10442000086004E006480068401B0549086000F089
:104430000DF800BF98E700002401002020010020B3
:104440001C01002026010020DA00002010B51EA16A
:104450000120FFF7ABFA244824A102680120FFF7EE
:10446000A5FA264826A102680120FFF79FFA2348F3
:1044700000681D490968421A25A10120FFF796FA34
:104480002748007808B127A000E028A0024629A10B
:104490000120FFF78BFA2B4802882BA10120FFF7A0
:1044A00085FA1148006815490968884201D12CA095
:1044B00000E02CA002462CA10120FFF777FA2FA1E3
:1044C0000120FFF773FA10BD3D3D3D20B2BDBDF8A0
:1044D000B5E7BBFA3738CEBBD6C3D0C5CFA2203D97
:1044E0003D3D0D0A000000001C010020B5B1C7B021
:1044F000CEBBD6C33A2025640D0A0000200100205F
:10450000C4BFB1EACEBBD6C33A2025640D0A000071
:10451000CEBBD6C3CEF3B2EE3A2025640D0A00001E
:1045200024010020C6F4D3C300000000BDFBD3C3A8
:1045300000000000BFD8D6C6D7B4CCAC3A20257353
:104540000D0A000026010020C3BFD6DCC6DAD7EE74
:10455000B4F3B2BDCAFD3A2025640D0A0000000084
:10456000CAC70000B7F10000CAC7B7F1B5BDB4EFC4
:10457000C4BFB1EA3A2025730D0A00003D3D3D3D20
:104580003D3D3D3D3D3D3D3D3D3D3D3D3D3D3D3D5B
:104590003D3D3D3D0D0A00000149086070470000A7
:1045A0001C01002000B50246FFF7CEFE0148026064
:1045B00000BD000020010020002001490870704764
:1045C00030010020012001490870704730010020AF
:1045D00001480068704700002801002070B5354888
:1045E000007800B970BD3448006834490968441A3D
:1045F00044B90021382001F0A3F902F00DF8FFF7CB
:10460000DBFFEFE7002C0DDD2D480088844202DD42
:104610002B48008800E0A0B20546C5F30B0040F42B
:1046200040460EE0604226490988884202DD24495E
:10463000098800E081B20D46C5F30B0141F45046F4
:1046400000BFB5F5805F08DB40F6FF75002C02DD8A
:104650004CF6FF7601E04DF6FF76002D27DD0121B7
:10466000362001F06DF94DF6D801372001F068F9D8
:104670003146382001F064F912480188392001F0F0
:104680005FF949F65E613A2001F05AF901F0C4FF82
:10469000002C05DD0948006828440849086004E04A
:1046A00006480068401B0549086000F00DF800BF8F
:1046B00098E70000300100202C0100202801002094
:1046C00032010020DC00002010B51EA10120FFF700
:1046D0006DF9244824A102680120FFF767F92648F4
:1046E00026A102680120FFF761F9234800681D49EF
:1046F0000968421A25A10120FFF758F927480078D8
:1047000008B127A000E028A0024629A10120FFF758
:104710004DF92B4802882BA10120FFF747F91148DA
:10472000006815490968884201D12CA000E02CA03E
:1047300002462CA10120FFF739F92FA10120FFF734
:1047400035F910BD3D3D3D20B2BDBDF8B5E7BBFA22
:104750003941CEBBD6C3D0C5CFA2203D3D3D0D0AC9
:104760000000000028010020B5B1C7B0CEBBD6C301
:104770003A2025640D0A00002C010020C4BFB1EAD4
:10478000CEBBD6C33A2025640D0A0000CEBBD6C3EB
:10479000CEF3B2EE3A2025640D0A0000300100206D
:1047A000C6F4D3C300000000BDFBD3C3000000006B
:1047B000BFD8D6C6D7B4CCAC3A2025730D0A0000BA
:1047C00032010020C3BFD6DCC6DAD7EEB4F3B2BDE7
:1047D000CAFD3A2025640D0A00000000CAC7000087
:1047E000B7F10000CAC7B7F1B5BDB4EFC4BFB1EAB5
:1047F0003A2025730D0A00003D3D3D3D3D3D3D3DC8
:104800003D3D3D3D3D3D3D3D3D3D3D3D3D3D3D3DD8
:104810000D0A0000014908607047000028010020CF
:1048200000B50246FFF7CEFE0148026000BD000061
:104830002C0100202DE9F04104460D461646314674
:104840002846FDF757FC8046B8F1010F01D1012041
:1048500000E0002007460FB105A000E008A00346D5
:1048600022460CA10120FFF7A1F83846BDE8F081EF
:10487000B8DFB5E7C6BDA3A8B5BDCEBBA3A90000F0
:10488000B5CDB5E7C6BDA3A8CEB4B5BDCEBBA3A973
:1048900000000000257320434FD0C5BAC5D7B4CC63
:1048A000AC3A2025730D0A0000B50020FFF7B2FFD7
:1048B0000020FFF7B5FF00200149087000BD00008F
:1048C0003D01002001480078704700003D010020B4
:1048D00010B520480078012839D1FDF719FC1E4990
:1048E0000968401A42F21071884209D91BA10120BF
:1048F000FFF75CF80320174908700846007810BDE0
:1049000008211E48FDF7F6FB04461D480078844246
:104910001AD00020FFF77EFF0020FFF781FF012C57
:1049200001D118A000E019A003461548007801281D
:1049300001D114A000E015A0024615490120FFF79F
:1049400035F80220034908700D48047000BF014883
:104950000078D4E73D01002040010020464F435538
:1049600053206D6F746F7220726573657420746963
:104970006D656F7574210D0A00000000000C014088
:104980004401002048494748000000004C4F5700B0
:1049900038A2000810B51A48007850B118480078BD
:1049A000022806D016480078032802D04FF0FF30C6
:1049B00010BD14A10120FEF7F9FF08211B48FDF7E7
:1049C00099FB1B4908700846007818B91948FFF789
:1049D00027FF03E06FF07040FFF722FFFFF7F2FDC3
:1049E0006FF0704214A10120FEF7E0FF012004499E
:1049F0000870FDF78DFB1B4908600020D8E7000018
:104A00003D0100205374617274696E6720464F4304
:104A10005553206D6F746F722072657365742070CA
:104A2000726F636573732E2E2E0D0A00000C014009
:104A300044010020010000F0464F435553207461AB
:104A40007267657420706F736974696F6E20736527
:104A50007420746F206D6178696D756D3A202564DE
:104A60000D0A00004001002000B50020FFF756FCB1
:104A70000020FFF759FC00200149087000BD00002C
:104A800055010020014800787047000055010020C2
:104A900010B51948007801282BD1FDF739FB1749CB
:104AA0000968401A42F21071884209D914A1012004
:104AB000FEF77CFF0320104908700846007810BDFF
:104AC00020211648FDF716FB04461548007884425D
:104AD0000CD00020FFF722FC0020FFF725FC11A1DD
:104AE0000120FEF763FF0220034908700C480470A0
:104AF00000BF01480078E2E755010020580100207E
:104B000049524953206D6F746F72207265736574DA
:104B10002074696D656F7574210D0A00000C0140E9
:104B20005C01002049524953206D6F746F722072EE
:104B30006573657420636F6D706C65746564207354
:104B400075636365737366756C6C79202D20434FB4
:104B5000207369676E616C206368616E6765640DC0
:104B60000A00000010B51A48007850B118480078C3
:104B7000022806D016480078032802D04FF0FF30F4
:104B800010BD14A10120FEF711FF20211B48FDF7E5
:104B9000B1FA1B4908700846007818B91948FFF7A0
:104BA000C3FB03E06FF07040FFF7BEFBFFF736FB7F
:104BB0006FF0704214A10120FEF7F8FE01200449B5
:104BC0000870FDF7A5FA1B4908600020D8E700002F
:104BD000550100205374617274696E67204952490F
:104BE00053206D6F746F72207265736574207072DC
:104BF0006F636573732E2E2E0D0A0000000C0140AA
:104C00005C010020010000F0495249532074617298
:104C100067657420706F736974696F6E2073657453
:104C200020746F206D6178696D756D3A2025640D73
:104C30000A0000005801002000B50020FFF79AF993
:104C40000020FFF79DF900200149087000BD000019
:104C50004D01002001480078704700004D01002000
:104C600010B51A48007801282CD1FDF751FA1849DF
:104C70000968401A42F21071884209D915A1012031
:104C8000FEF794FE0320114908700846007810BD15
:104C90004FF400411748FDF72DFA044616480078F6
:104CA00084420CD00020FFF765F90020FFF768F977
:104CB00012A10120FEF77AFE0220044908700E4876
:104CC000047000BF01480078E1E700004D010020BA
:104CD000500100205A4F4F4D31206D6F746F72207C
:104CE00072657365742074696D656F7574210D0A42
:104CF0000000000000080140540100205A4F4F4DB1
:104D000031206D6F746F7220726573657420636FEC
:104D10006D706C6574656420737563636573736629
:104D2000756C6C79202D20434F207369676E616C20
:104D3000206368616E6765640D0A000010B51A484B
:104D4000007850B118480078022806D0164800783C
:104D5000032802D04FF0FF3010BD14A10120FEF750
:104D600025FE4FF400411B48FDF7C4F91A490870AD
:104D70000846007820B96FF07040FFF701F902E0B3
:104D80001648FFF7FDF8FEF7CDFF6FF0704214A153
:104D90000120FEF70BFE012003490870FDF7B8F96A
:104DA0001A4908600020D7E74D0100205374617252
:104DB00074696E67205A4F4F4D31206D6F746F725A
:104DC0002072657365742070726F636573732E2E25
:104DD0002E0D0A000008014054010020010000F0DF
:104DE0005A4F4F4D312074617267657420706F7334
:104DF0006974696F6E2073657420746F206D6178BB
:104E0000696D756D3A2025640D0A0000500100207F
:104E100000B50020FFF7C0FB0020FFF7C3FB002018
:104E20000149087000BD00004501002001480078DC
:104E3000704700004501002010B51948007801288E
:104E40002BD1FDF765F917490968401A42F2107134
:104E5000884209D914A10120FEF7A8FD03201049BA
:104E600008700846007810BD10211748FDF742F978
:104E700004461648007884420CD00020FFF78CFBD3
:104E80000020FFF78FFB12A10120FEF78FFD02200B
:104E9000034908700D48047000BF01480078E2E73C
:104EA00045010020480100205A4F4F4D32206D6FC0
:104EB000746F722072657365742074696D656F75A7
:104EC00074210D0A00000000000C01404C0100207C
:104ED0005A4F4F4D32206D6F746F7220726573653B
:104EE0007420636F6D706C657465642073756363A3
:104EF00065737366756C6C79202D20434F20736940
:104F0000676E616C206368616E6765640D0A0000FE
:104F100010B51A48007850B118480078022806D019
:104F200016480078032802D04FF0FF3010BD14A1BE
:104F30000120FEF73BFD10211B48FDF7DBF81B4964
:104F400008700846007820B96FF07040FFF72AFB20
:104F500002E01748FFF726FBFFF7F6F96FF0704203
:104F600014A10120FEF722FD012004490870FDF77D
:104F7000CFF81B4908600020D8E700004501002059
:104F80005374617274696E67205A4F4F4D32206DB1
:104F90006F746F722072657365742070726F6365D1
:104FA00073732E2E2E0D0A00000C01404C010020C0
:104FB000010000F05A4F4F4D3220746172676574E2
:104FC00020706F736974696F6E2073657420746FDD
:104FD000206D6178696D756D3A2025640D0A0000B9
:104FE0004801002010B50020FFF702F90020FFF76C
:104FF00005F9002002490870FFF754F810BD0000C1
:10500000360100200148007870470000360100207A
:1050100010B52148007801283AD1FDF779F81F49E9
:105020000968401A42F21071884209D91CA1012076
:10503000FEF7BCFC0320184908700846007810BD34
:105040004FF480511E48FDF755F804461D4800787E
:1050500084421AD00020FFF7CBF80020FFF7CEF8EB
:10506000012C01D118A000E019A0034615480078D2
:10507000012801D114A000E015A002461549012025
:10508000FEF794FC0220044908700E48047000BF2B
:1050900001480078D3E700003601002038010020E5
:1050A0005A4F4F4D33206D6F746F72207265736568
:1050B000742074696D656F7574210D0A000000001D
:1050C000000801403C01002048494748000000001A
:1050D0004C4F5700E8A1000810B51A48007850B1AD
:1050E00018480078022806D016480078032802D015
:1050F0004FF0FF3010BD14A10120FEF757FC4FF414
:1051000080511B48FCF7F6FF1A49087008460078E2
:1051100020B96FF07040FFF771F802E01648FFF712
:105120006DF8FEF73DFF6FF0704214A10120FEF70D
:105130003DFC012003490870FCF7EAFF1A490860AA
:105140000020D7E7360100205374617274696E67DE
:10515000205A4F4F4D33206D6F746F7220726573FC
:1051600065742070726F636573732E2E2E0D0A00A6
:10517000000801403C010020010000F05A4F4F4D53
:10518000332074617267657420706F736974696F1E
:105190006E2073657420746F206D6178696D756D14
:1051A0003A2025640D0A0000380100202DE9F04165
:1051B0004FF400420F4910A0FFF73CFB05464FF4A7
:1051C00080520C490EA0FFF735FB064620220E49FF
:1051D0000EA0FFF72FFB074610220B490DA0FFF78B
:1051E00029FB8046082208490CA0FFF723FB044650
:1051F000BDE8F081000801405A4F4F4D31000000DA
:105200005A4F4F4D33000000000C014049524953A2
:10521000000000005A4F4F4D32000000464F4355EA
:105220005300000000BFFEE72DE9F0412B488078D5
:10523000002850D0FFF70EFD0446FFF7F7FD0546A6
:10524000FFF7E0FE0646FFF73DFB0746FFF71AFCB7
:105250008046022C01D0032C3CD1022D01D0032D1D
:1052600038D1022E01D0032E34D1022F01D0032FCA
:1052700030D1B8F1020F02D0B8F1030F2AD10020CB
:1052800016498870FFF7D8FCFFF7C2FDFFF7AAFEAA
:10529000FFF70AFBFFF7E8FB1149B1F90810C80056
:1052A000FEF76EFE0E49B1F90A108800FFF77AF991
:1052B0000B49B1F90C108800FEF7A0FF0849B1F9BD
:1052C0000E108800FFF7ACFA4FF40970054908602A
:1052D0000549086000BFBDE8F0810000A000002083
:1052E0008A690008980000209C0000202DE9F04702
:1052F00006460C4617460EB104B117B90420BDE8A6
:10530000F0874FF00008C146C2463078062816D212
:10531000DFE800F0030507090B10652511E067259C
:105320000FE069250DE06B250BE06D250F4890F827
:10533000019006E06F2500F039F9824601E0052072
:10534000DDE700BFFF20207000206070A57084F8AA
:10535000038084F8049084F805A00521601C00F007
:1053600007F8A071072038700020C8E7A0000020CF
:1053700010B502460B46002103E010780844C1B284
:10538000521C181EA3F10104E3B2F6D1C8B210BD3D
:1053900070B5044600252078062820D2DFE800F00A
:1053A00003070C11171D00F063F805461AE0E078BA
:1053B00000F09CF8054615E0E07800F07DF8054621
:1053C00010E0E178A07800F010F805460AE0E178F6
:1053D000A07800F025F8054604E0002502E04FF033
:1053E000FF3500BF00BF284670BD70B505460C46AE
:1053F0004DB9FFF7EDF8064606EB84010E46084668
:10540000FFF70EFA0AE0012D08D1FFF7E1F8064692
:10541000A6EB84010E460846FFF702FA002070BD95
:1054200070B505460C46E5B90F484470012C0AD109
:10543000012249020D48FCF765FE012251020B488A
:10544000FCF760FE0BE000224FF400710748FCF708
:1054500059FE00224FF400710448FCF753FE00206F
:1054600070BD4FF0FF30FBE7A0000020000C0140B2
:1054700010B50024FFF762FC00B1641EFFF748FD81
:1054800008B14FF0FF34FFF727FE08B14FF0FF34AB
:10549000FFF780FA08B14FF0FF34FFF763FB08B164
:1054A0004FF0FF3424B901200249887002200870AF
:1054B000204610BDA0000020014601290CDB102968
:1054C0000ADC074801700078401E064A32F81000D6
:1054D000054A1060002070474FF0FF30FBE70000E6
:1054E000A0000020780000209C0000200146012937
:1054F0001CD11D48007810280EDA1B480078401C8B
:10550000194A107010460078401E184A32F81000F0
:10551000174A10600020704713480078401E134A55
:1055200032F81000124A10600020F4E70E480078AC
:1055300001280EDD0C480078401E0B4A1070104602
:105540000078401E094A32F81000094A1060002015
:10555000E1E705480078401E044A32F81000044A8A
:1055600010604FF0FF30D6E7A00000207800002048
:105570009C0000200146A1F165000B2813D2DFE852
:1055800000F0061208120A120C120E12100000206F
:1055900070470120FCE70220FAE70320F8E7042027
:1055A000F6E70520F4E70620F2E70000014800785E
:1055B00070470000A000002001200349087000206F
:1055C0004870887070470000A00000202DE9F0416D
:1055D00004460F46154604B115B90420BDE8F08114
:1055E000072F01D00420F9E72078FF2801D00120FF
:1055F000F4E76078012801D00220EFE70521601C64
:10560000FFF7B6FE0646A079B04201D00320E5E7D9
:1056100060786870E078FFF7ADFF28702079A87097
:105620006079E8702878062801D10520D6E70020A7
:10563000D4E72DE9FF4104460D4603AA294620463A
:10564000FFF7C4FF064686B903A8FFF7A1FE804610
:105650006A4601A903A8FFF749FE074627B99DF846
:10566000001001A800F004F800BFBDE8FF810000B1
:1056700070B504460D464FF47A732A462146024817
:10568000FEF75AF870BD0000F802002070470000D5
:1056900008B508490968C9084FF47A72B1FBF2F1FC
:1056A0004143009100BF00BF00994A1E00920029AB
:1056B000F9D108BD0C00002010B5012211020C48E0
:1056C000FCF720FD0120FCF771FB00224FF48071F4
:1056D0000748FCF717FD0120FCF768FB01221102C7
:1056E0000348FCF70FFD0A20FCF760FB10BD00002B
:1056F00000080140F8B504460E461546334601221F
:1057000002212046009500F06DF828B1606D40F050
:10571000200060650320F8BD33460022802120462A
:10572000009500F05FF828B1606D40F020006065E2
:105730000320F0E70020EEE710B592B010A1194861
:1057400000F0E0FB002413E011A9204600F01EF950
:10575000BDF84430224614A101A8FAF7C7FD01A9FB
:10576000104800F0CFFB0120FCF720FB601CC4B206
:105770003F2CE9DD12A10B4800F0C4FB12B010BDB4
:105780000D0A3D3D3D2053504920526567697374B1
:1057900065722044756D70205374617274203D3DB4
:1057A0003D0D0A00F80200205265675B3078253015
:1057B00032585D203D203078253034580D0A0000E5
:1057C0003D3D3D20535049205265676973746572B1
:1057D0002044756D7020456E64203D3D3D0D0A0DE1
:1057E0000A0000002DE9F84F04460D4690461E467B
:1057F000DDF82890FCF78CFCA0EB0900371AFCF7C9
:1058000087FC82462C480068C0F3CB307843009078
:1058100045E0701C002842D0FCF77AFCA0EB0A009F
:10582000B84200D2A7BB2068406820F0E0002168A1
:1058300048606068B0F5827F0DD1A068B0F5004F78
:1058400003D0A068B0F5806F05D12068006820F013
:10585000400021680860A06AB0F5005F0DD100BF6C
:105860002068006820F40050216808602068006803
:1058700040F400502168086000BF012084F8510006
:1058800000BF002084F8500000BF0320BDE8F88F5F
:10589000FFE7009800B900270098401E009020689C
:1058A00080682840A84201D1012000E00020404546
:1058B000AFD10020EAE700000C0000207047000094
:1058C00001200E49486005200D49486014200D490B
:1058D000486019200C49486032200C494860642017
:1058E0000B494860C8200B4948604FF4FA700A49D8
:1058F00048604000094948607047000010000020DF
:105900001800002020000020280000203000002087
:1059100038000020400000204800002050000020F7
:1059200001B582B04FF0FF30012301AA02A9009017
:105930000248FDF7BFF89DF804000EBD800100206D
:1059400070B506460C46012211030F48FCF7DAFB3E
:105950003046FFF7E5FF2546E11704EB1161091218
:10596000A4EB0121C8B2FFF7DBFFE11704EB1161E3
:10597000C1F30720FFF7D4FF00224FF48051024803
:10598000FCF7C0FB70BD0000000C01402DE9F041A8
:1059900004460D46012211030C48FCF7B3FB44F00A
:1059A0004000FFF7BDFF0020FFF7BAFF07460020C9
:1059B000FFF7B6FF064647EA0620288000224FF48C
:1059C00080510248FCF79EFBBDE8F081000C0140CD
:1059D00010B50D48FDF77EFA0C48FDF77BFA0C4830
:1059E000FDF778FA01220B490B48FDF741FE012231
:1059F0000A490B48FDF73CFE0AA1094800F082FA6B
:105A00001420FCF7D3F910BDD8010020200200209B
:105A1000680200205F000020F80200206B000020D8
:105A2000B002002075736172745F315F6F6B0D0A95
:105A30000000000010B5FCF771FB10BD00B58FB081
:105A4000282105A8FAF740FE14216846FAF73CFE23
:105A5000022005900120099010200A9002200C904D
:105A600000210D914FF460110E9105A8FCF74CFD3B
:105A700008B1FCF70FF90F200090022001900020E0
:105A800002904FF480600390002004900221684649
:105A9000FCF716FC08B1FCF7FDF80FB000BD70472D
:105AA00010B50248FDF7D9FA10BD0000D80100205A
:105AB00010B50248FDF7D1FA10BD00002002002009
:105AC00010B50248FDF7C9FA10BD000068020020B9
:105AD00010B502681C4B984208D0B0F1804F05D039
